:0F08FD007DCD7C01ED1D70011C144C70F7DFF1F7
:01090C0022C8
:0B091A00E4FEEEC39F50040E0E80F7B9
:0109250022AF
:03000300020006F2
:03000600053F3281
:0300130002000EDA
:03000E0005413277
:03000B00020016DA
:03001600053B3275
:03001B0002094F88
:03094F00053D3231
:10076100A2AF9201C2AFC2A5D2A4D2A7E4FF801862
:100771007590FFC2A7E4FF12091AD2A7E4FF12097C
:100781001AE59030E7077F0A12091A80E3C2A7A28F
:030791000192AF23
:010794002242
:020858008F0D02
:10085A00120761A2AF9200C2AFC2A5C2A4C2A78505
:10086A000D90D2A7E4FF12091AC2A7A20092AF7F85
:04087A000A02091A4B
:02082D008F0D2D
:10082F00120761A2AF9200C2AFD2A5C2A4C2A78520
:10083F000D90E4FF12091AD2A7E4FF12091AC2A7FA
:09084F00A20092AF7F0A02091A0F
:1008A400120761A2AF9202C2AFC2A5D2A4D2A775A9
:1008B40090FFE4FF12091AAF90C2A7C2A4A2029249
:0108C400AF84
:0108C5002210
:1008C600120761A2AF9203C2AFD2A5D2A4D2A77576
:0E08D60090FF0000AF90C2A7C2A4A20392AF91
:0108E40022F1
:0A07F5007F141208587F3202091A1F
:0A0932007F101208587F3202091AE4
:060795008B0E8A0F891093
:10079B00EF33333354F82440FF120858E4F511AB10
:1007AB000EAA0FA91085118275830012043FFF1248
:0B07BB00082D0511E511C3940840E46F
:0107C6002210
:1008E50053073F530501ED6003430740EF4480FF85
:0808F5001208587F3202091AB3
:0A093C008B0C1208E5AF0C02082D29
:10087E008B098A0A890B1208E5AB09AA0AA90B1281
:10088E000426FF601012082D7401250BF50BE435BC
:06089E000AF50A80E422C5
:100650008F128D138B141208E5E51454F0700EE51B
:100660001554F070047F30800C7F208008E514C49E
:10067000540F2430FF12082DE51204FFAD131208A9
:10068000E5E514540F700EE515540F70047F3080AB
:100690000B7F208007E514540F2430FF12082D2211
:100800007F321208FD7F381208587F6412091A7F60
:100810000C1208587F6412091A7F011208587F0AC7
:0D0820001208FD7F061208587F6402091AB5
:10058000C2B57FC81208FD7FC81208FD7FC81208D7
:10059000FD7FC81208FD7FC81208FDB2B57FC812E2
:1005A00008FD7FC81208FD7FC81208FD7FC8120829
:1005B000FD7FC81208FDB2B57FC81208FD1206A063
:1005C0007B69E4FD7F0A12093CE53414600C146079
:1005D0000E2402700F12094680EF1205E980EA121C
:0905E000001E80E512035080E0CA
:10072900E4F58EF597F5C1F587F593F594F591F50F
:1007390092F595F596F5B1F5B2F5A8F5887D01FF25
:100749001207C77D017F011207C77D03E4FF120469
:08075900F57D037F010204F5A8
:1007C700A2AF9200C2AFEF7012C2A8C289C288ED71
:1007D7007004D2A88013BD0110800EBF010BC2AAFE
:0D07E700C28BC28AED7002D2AAA20092AFAE
:0107F40022E2
:1004F500A2AF9200C2AFEF703DC28CC2A9C28DED12
:10050500700FE58954F02408F589E4F58AF58C80A7
:1005150021BD020B5389F0758A58758C9E8013BDD9
:10052500010B5389F0758A78758CEC8005BD030243
:100535008040C28D8040EF6401703FC28EC2ABC265
:100545008FED700FE589540F2480F589E4F58BF55F
:100555008D8021BD020B53890F758B58758D9E803B
:1005650013BD010B53890F758B78758DEC8005BD17
:0A05750003028002C28FA20092AFC1
:01057F002259
:0D090D0046534D204552524F5221212100EA
:1006EE00120426FFFE90000112043FFDEED39D4042
:1006FE0009EE9DFE900001EF801790000112043F5D
:10070E00FFEEC39F5010EFF4042EFE12042690004D
:0A071E000112046C8002E4FEAF0635
:0107280022AE
:1006A000120729120800E4F53FF540F541F542F53F
:1006B0003BF53CF53DF53EF521F522F523F524F516
:1006C00025F526F527F528F529F52AF52BF52CF53E
:1006D0002DF52EF52FF530F531F532F543F544F5CE
:0E06E00037F538F535F536C2B7C2B4D2AF22C1
:09094600E4F543F5447534012287
:1005E900E4F5087D01FF1207C77D017F011207C7E6
:1005F900758980C28CC2A9C28DE4F58CF58AD28C2A
:10060900C28EC2ABC28FF58DF58BD28EC2B47F1468
:1006190012091AD2B47F1412091AC2B47F3212080D
:10062900FDC28CC28EAF8CEFFEAD8A7C00E42DF545
:1006390024EC3EF523AF8DEFFEAD8BE42DF52CECCC
:060649003EF52B753402A2
:01064F002288
:10001E007D01E4FF1204F5D28CD2A97B007A00791F
:10002E003B1206EE7508008F09AE087C007D0A12A1
:10003E00048EEF2544F544EE3543F543D3E5449461
:10004E00E8E543940340D4E4F543F5447D03FF1201
:10005E0004F5753700753804E4F521F522E53864AA
:10006E000445376002614CF537F5380536E53670D4
:10007E00020535AE35AF367C277D101204A0EF2475
:10008E0030F509E43EF508AE35AF367C277D10120B
:10009E0004A08C0A8D0B7B737D017F0A12093C7BB9
:1000AE00657D017F0B12093C7B637D017F0C12097C
:1000BE003C7B3A7D017F0D12093CAB097D017F0E21
:1000CE0012093CAE0AAF0B7C037DE81204A0EF24AC
:1000DE0030F509E43EF508AE0AAF0B7C037DE8125D
:1000EE0004A08C0A8D0BAB097D017F0F12093CAE6B
:1000FE000AAF0B7C007D641204A0EF2430F509E4F6
:10010E003EF508AE0AAF0B7C007D641204A08C0A8B
:10011E008D0BAB097D017F1012093CAE0AAF0B7C33
:10012E00007D0A1204A0EF2430F509E43EF508AE76
:10013E000AAF0B7C007D0A1204A0ED2430F50BE40F
:10014E003CF50AAB097D017F1112093CAB0B7D0119
:10015E007F1212093CE52425E0FFE52333AB07C3EC
:10016E0013FAEB137C037DE8FFAE021204A0AA067D
:10017E00AB077C017D5412048EAA06AB07AA23ABF3
:10018E00247C277D10AF03AE021204A0EF2430F5BD
:10019E0009E43EF5087C277D10AF03AE021204A0E1
:1001AE008C0A8D0BAB09E4FDFF12093CAE0AAF0BB6
:1001BE007C037DE81204A0EF2430F509E43EF50837
:1001CE00AE0AAF0B7C037DE81204A08C0A8D0BAB3C
:1001DE0009E4FD7F0112093CAE0AAF0B7C007D6481
:1001EE001204A0EF2430F509E43EF508AE0AAF0B79
:1001FE007C007D641204A08C0A8D0BAB09E4FD7F9C
:10020E000212093CAE0AAF0B7C007D0A1204A0EF6D
:10021E002430F509E43EF508AE0AAF0B7C007D0AEA
:10022E001204A0ED2430F50BE43CF50AAB09E4FD15
:10023E007F0312093CAB0BE4FD7F0412093C7B6D7E
:10024E00E4FD7F0512093C7B6DE4FD7F0612093C3F
:10025E00E52C25E0FBE52B33C313FAEB137C017D74
:10026E0054FFAE0212048E7C037DE81204A0AA068F
:10027E00AB077C277D101204A0EF2430F509E43E75
:10028E00F508AE02AF037C277D101204A08C0A8DF8
:10029E000BAB097D01E4FF12093CAE0AAF0B7C03E8
:1002AE007DE81204A0EF2430F509E43EF508AE0A0D
:1002BE00AF0B7C037DE81204A08C0A8D0BAB097D7D
:1002CE00017F0112093CAE0AAF0B7C007D64120463
:1002DE00A0EF2430F509E43EF508AE0AAF0B7C0022
:1002EE007D641204A08C0A8D0BAB097D017F021276
:1002FE00093CAE0AAF0B7C007D0A1204A0EF24303D
:10030E00F509E43EF508AE0AAF0B7C007D0A120437
:10031E00A0ED2430F50BE43CF50AAB097D017F031B
:10032E0012093CAB0B7D017F0412093C7B6D7D01F4
:10033E007F0512093C7B6D7D017F0612093CE4F5B9
:01034E00347A
:01034F00228B
:100350007B007A00793B1206EE8F08EF75F00AA455
:10036000AEF02544F544EE3543F543D3E54494E837
:10037000E543940340DAE4F543F5447D03FF1204BA
:10038000F5753700753804E4F5087B20E4FDAF0807
:1003900012093C0508E508C3941040EEE4F5087B1B
:1003A000207D01AF0812093C0508E508C394104000
:1003B000EE7BFF7A09790DE4FDFF12087E7B667DF6
:1003C00001E4FF12093C7B737D017F0112093C7B34
:1003D0006D7D017F0212093C7B3A7D017F0312098A
:1003E0003CE53475F064842430FB7D017F04120900
:1003F0003CE53475F06484E5F075F00A842430FB44
:100400007D017F0512093CE53475F00A84E5F0248E
:1004100030FB7D017F0612093C7B647D017F071262
:05042000093C853434A5
:0104250022B4
:03000000020926CC
:0C092600787FE4F6D8FD7581440205805E
:10042600BB010689828A83E0225002E722BBFE02D4
:09043600E32289828A83E4932207
:10043F00BB010CE58229F582E5833AF583E0225072
:10044F0006E92582F8E622BBFE06E92582F8E222BC
:0D045F00E58229F582E5833AF583E49322D6
:10046C00F8BB010DE58229F582E5833AF583E8F0C6
:10047C00225006E92582C8F622BBFE05E92582C872
:02048C00F2225A
:10048E00EF8DF0A4A8F0CF8CF0A428CE8DF0A42E82
:02049E00FE223C
:1004A000BC000BBE0029EF8DF084FFADF022E4CC40
:1004B000F875F008EF2FFFEE33FEEC33FCEE9DEC09
:1004C000984005FCEE9DFE0FD5F0E9E4CEFD22ED4F
:1004D000F8F5F0EE8420D21CFEADF075F008EF2F99
:1004E000FFED33FD4007985006D5F0F222C398FD8A
:0504F0000FD5F0EA2227
:00000001FF
