:0F0ACE007DCD7C01ED1D70011C144C70F7DFF124
:010ADD0022F6
:0B0AEB00E4FEEEC39F50040E0E80F7E7
:010AF60022DD
:03000300020006F2
:03000600053F3281
:0300130002000EDA
:03000E0005413277
:03000B00020016DA
:03001600053B3275
:03001B000207FCDD
:0307FC00053D3286
:10093D00A2AF9201C2AFC2A5D2A4D2A7E4FF801884
:10094D007590FFC2A7E4FF120AEBD2A7E4FF120ACB
:10095D00EBE59030E7077F0A120AEB80E3C2A7A20E
:03096D000192AF45
:010970002264
:020A29008F0D2F
:100A2B0012093DA2AF9200C2AFC2A5C2A4C2A78554
:100A3B000D90D2A7E4FF120AEBC2A7A20092AF7FE0
:040A4B000A020AEBA6
:0209FE008F0D5B
:100A000012093DA2AF9200C2AFD2A5C2A4C2A7856F
:100A10000D90E4FF120AEBD2A7E4FF120AEBC2A783
:090A2000A20092AF7F0A020AEB6A
:100A750012093DA2AF9202C2AFC2A5D2A4D2A775F8
:100A850090FFE4FF120AEBAF90C2A7C2A4A20292A4
:010A9500AFB1
:010A9600223D
:100A970012093DA2AF9203C2AFD2A5D2A4D2A775C5
:0E0AA70090FF0000AF90C2A7C2A4A20392AFBE
:010AB500221E
:0A0B03007F14120A297F32020AEB68
:0A0B0D007F10120A297F32020AEB62
:060971008B0E8A0F8910B5
:10097700EF33333354F82440FF120A29E4F511AB5F
:100987000EAA0FA910851182758300120533FF1275
:0B09970009FE0511E511C3940840E4BF
:0109A2002232
:100AB60053073F530501ED6003430740EF4480FFB2
:080AC600120A297F32020AEB3B
:0A0B17008B0C120AB6AF0C0209FEA7
:100A4F008B098A0A890B120AB6AB09AA0AA90B12DB
:100A5F00051AFF60101209FE7401250BF50BE43522
:060A6F000AF50A80E422F2
:100867008F128D138B14120AB6E51454F0700EE52F
:100877001554F070047F30800C7F208008E514C485
:10088700540F2430FF1209FEE51204FFAD13120ABC
:10089700B6E514540F700EE515540F70047F3080C1
:1008A7000B7F208007E514540F2430FF1209FE2226
:1009D1007F32120ACE7F38120A297F64120AEB7F16
:1009E1000C120A297F64120AEB7F01120A297F0A7D
:0D09F100120ACE7F06120A297F64020AEB6B
:10075800C2B57FC8120ACE7FC8120ACE7FC8120A55
:10076800CE7FC8120ACE7FC8120ACEB2B57FC81291
:100778000ACE7FC8120ACE7FC8120ACE7FC8120AD4
:10078800CE7FC8120ACEB2B57FC8120ACE1208B7F9
:100798007B69E4FD7F0A120B17E53414600C1460C2
:1007A8000E2402700F120B2180EF12080080EA124B
:0907B800001E80E51205F780E047
:10090500E4F58EF597F5C1F587F593F594F591F531
:1009150092F595F596F5B1F5B2F5A8F5887D01FF47
:100925001209A37D017F011209A37D03E4FF1206CD
:08093500CD7D037F010206CD18
:1009A300A2AF9200C2AFEF7012C2A8C289C288ED93
:1009B3007004D2A88013BD0110800EBF010BC2AA20
:0D09C300C28BC28AED7002D2AAA20092AFD0
:0109D0002204
:1006CD00A2AF9200C2AFEF703DC28CC2A9C28DED38
:1006DD00700FE58954F02408F589E4F58AF58C80CE
:1006ED0021BD020B5389F0758A58758C9E8013BD00
:1006FD00010B5389F0758A78758CEC8005BD03026A
:10070D008040C28D8040EF6401703FC28EC2ABC28B
:10071D008FED700FE589540F2480F589E4F58BF585
:10072D008D8021BD020B53890F758B58758D9E8061
:10073D0013BD010B53890F758B78758DEC8005BD3D
:0A074D0003028002C28FA20092AFE7
:01075700227F
:0D0ADE0046534D204552524F522121210018
:1007C10012051AFFFE900001120533FDEED39D4084
:1007D10009EE9DFE900001EF801790000112053394
:1007E100FFEEC39F5010EFF4042EFE12051A900085
:0A07F100011205608002E4FEAF066D
:0107FB0022DB
:1008B7001209051209D1E4F53FF540F541F542F576
:1008C7003BF53CF53DF53EF521F522F523F524F5FD
:1008D70025F526F527F528F529F52AF52BF52CF525
:1008E7002DF52EF52FF530F531F532F543F544F5B5
:0E08F70037F538F535F536C2B7C2B4D2AF22A8
:090B2100E4F543F54475340122AA
:10080000E4F5087D01FF1209A37D017F011209A310
:10081000758980C28CC2A9C28DE4F58CF58AD28C10
:10082000C28EC2ABC28FF58DF58BD28EC2B47F144F
:10083000120AEBD2B47F14120AEBC2B47F32120A4E
:10084000CEC28CC28EAF8CEFFEAD8A7C00E42DF55B
:1008500024EC3EF523AF8DEFFEAD8BE42DF52CECB3
:060860003EF52B75340289
:01086600226F
:10001E007D01E4FF1206CDD28CD2A97B007A007945
:10002E003B1207C17508008F09AE087C007D0A12CD
:10003E000582EF2544F544EE3543F543D3E544946C
:10004E00E8E543940340D4E4F543F5447D03FF1201
:10005E0006CD753700753804E4F521F522E53864D0
:10006E0004453760026151F537F5380536E53670CF
:10007E00020535AE35AF367C277D10120594EF2480
:10008E0030F509E43EF508AE35AF367C277D10120B
:10009E0005948C0A8D0B7B737D017F0A120B177BE7
:1000AE00657D017F0B120B177B637D017F0C120B9D
:1000BE00177B3A7D017F0D120B17AB097D017F0E69
:1000CE00120B17AE0AAF0B7C037DE8120594EF24DA
:1000DE0030F509E43EF508AE0AAF0B7C037DE8125D
:1000EE0005948C0A8D0BAB097D017F0F120B17AE99
:1000FE000AAF0B7C007D64120594EF2430F509E401
:10010E003EF508AE0AAF0B7C007D641205948C0A96
:10011E008D0BAB097D017F10120B17AE0AAF0B7C56
:10012E00007D0A120594EF2430F509E43EF508AE81
:10013E000AAF0B7C007D0A120594ED2430F50BE41A
:10014E003CF50AAB097D017F11120B17AB0B7D013C
:10015E007F12120B17E52425E0FFE52333AB07C30F
:10016E0013FAEB137C037DE8FFAE02120594AA0688
:10017E00AB077C017D54120582AA06AB07AA23ABFE
:10018E00247C277D10AF03AE02120594EF2430F5C8
:10019E0009E43EF5087C277D10AF03AE02120594EC
:1001AE008C0A8D0BAB09E4FDFF120B17AE0AAF0BD9
:1001BE007C037DE8120594EF2430F509E43EF50842
:1001CE00AE0AAF0B7C037DE81205948C0A8D0BAB47
:1001DE0009E4FD7F01120B17AE0AAF0B7C007D64A4
:1001EE00120594EF2430F509E43EF508AE0AAF0B84
:1001FE007C007D641205948C0A8D0BAB09E4FD7FA7
:10020E0002120B17AE0AAF0B7C007D0A120594EF9B
:10021E002430F509E43EF508AE0AAF0B7C007D0AEA
:10022E00120594ED2430F50BE43CF50AAB09E4FD20
:10023E007F03120B17AB0BE4FD7F04120B177B6DC4
:10024E00E4FD7F05120B177B6DE4FD7F06120B1785
:10025E00E52C25E0FBE52B33C313FAEB13FBFDACCA
:10026E0002E41204607B7B7A1479AE783E12035559
:10027E00120499AA06AB077C277D10120594EF2471
:10028E0030F509E43EF508AE02AF037C277D10126F
:10029E0005948C0A8D0BAB097D01E4FF120B17AE92
:1002AE000AAF0B7C037DE8120594EF2430F509E4C8
:1002BE003EF508AE0AAF0B7C037DE81205948C0A5E
:1002CE008D0BAB097D017F01120B17AE0AAF0B7CB4
:1002DE00007D64120594EF2430F509E43EF508AE76
:1002EE000AAF0B7C007D641205948C0A8D0BAB0952
:1002FE007D017F02120B17AE0AAF0B7C007D0A1236
:10030E000594EF2430F509E43EF508AE0AAF0B7CF8
:10031E00007D0A120594ED2430F50BE43CF50AAB92
:10032E00097D017F03120B17AB0B7D017F04120BAE
:10033E00177B6D7D017F05120B177B6D7D017F068F
:06034E00120B17E4F53468
:010354002286
:1005F7007B007A00793B1207C18F08EF75F00AA4D8
:10060700AEF02544F544EE3543F543D3E54494E88D
:10061700E543940340DAE4F543F5447D03FF12060E
:10062700CD753700753804E4F5087B20E4FDAF0885
:10063700120B170508E508C3941040EEE4F5087B94
:10064700207D01AF08120B170508E508C394104079
:10065700EE7BFF7A0A79DEE4FDFF120A4F7B667DA7
:1006670001E4FF120B177B737D017F01120B177BD0
:100677006D7D017F02120B177B3A7D017F03120B01
:1006870017E53475F064842430FB7D017F04120B79
:1006970017E53475F06484E5F075F00A842430FBBF
:1006A7007D017F05120B17E53475F00A84E5F02408
:1006B70030FB7D017F06120B177B647D017F0712DC
:0506C7000B178534341F
:0106CC00220B
:10035500EC4D6011E8497017ED33EC3304600DE4A2
:10036500FCFFFEFD22E933E8330470F802050512AF
:1003750004D058046009E4CC2481500628500902B1
:10038500050F28400302050CC0E0EB4A7044B98014
:1003950006D0E0FB0204FBEF4E701CBD8008EBFFAE
:1003A500EAFEE9FD80EBE98DF0A4FEE5F002043EEE
:1003B500E9CDF9EAFEEBFFEF89F0A4FCE5F0CE8983
:1003C500F0A42EFFE435F0CD89F0A42DFEE435F040
:1003D5008067EF4E7005BD80D780C3EF8BF0A4AC6E
:1003E500F0EE8BF0A42CFCE435F0F8EF8AF0A42CA9
:1003F500E5F038FCE433CB8DF0A42CFCE5F03BF8BC
:10040500EE8AF0A42CFCE5F038F8E433CF89F0A4AB
:100415002CFCE5F038CF3400CE89F0A42FFFE5F0B1
:100425003EFEE433C98DF0A42EFEE5F039CD8AF009
:10043500A42FFFE5F03EFEE43DFD33D0E0FB500781
:100445000BBB000F02050FEC2CFCEF33FFEE33FE68
:06045500ED33FD0204E797
:10045B0075F020800E75F010800575F0087D007E1C
:10046B00007F003392D530D5031205E9EC334010F1
:10047B00EF33FFEE33FEED33FDEC33FCD5F0ED2225
:0E048B00E5F0247EA2D513CC92E7CDCEFF2261
:10049900EDD2E7CD33EC3392D524814006E4FFFE5B
:1004A900FDFC22FCE4CFCECDCC24E0501174FF80BA
:1004B900EDC3CC13CCCD13CDCE13CECF13CF047057
:0704C900F030D5DE0205E969
:1004D000E9D2E7C933E833F892D5EDD2E7CD33EC72
:0704E00033FC5002B2D522EB
:1004E700EC30E7100FBF000C0EBE00080DBD000476
:1004F7000BEB6014A2D5EB13FCED92E7FD2274FF22
:10050700FCFDFEFF22E480F8A2D574FF13FC7D807A
:03051700E480EF8E
:03000000020AF7FA
:0C0AF700787FE4F6D8FD758144020758B2
:10051A00BB010689828A83E0225002E722BBFE02DF
:09052A00E32289828A83E4932212
:10053300BB010CE58229F582E5833AF583E022507D
:1005430006E92582F8E622BBFE06E92582F8E222C7
:0D055300E58229F582E5833AF583E49322E1
:10056000F8BB010DE58229F582E5833AF583E8F0D1
:10057000225006E92582C8F622BBFE05E92582C87D
:02058000F22265
:10058200EF8DF0A4A8F0CF8CF0A428CE8DF0A42E8D
:02059200FE2247
:10059400BC000BBE0029EF8DF084FFADF022E4CC4B
:1005A400F875F008EF2FFFEE33FEEC33FCEE9DEC14
:1005B400984005FCEE9DFE0FD5F0E9E4CEFD22ED5A
:1005C400F8F5F0EE8420D21CFEADF075F008EF2FA4
:1005D400FFED33FD4007985006D5F0F222C398FD95
:0505E4000FD5F0EA2232
:0E05E900C3E49FFFE49EFEE49DFDE49CFC2223
:00000001FF
