:0F0701007DCD7C01ED1D70011C144C70F7DFF1F4
:0107100022C6
:0B073E00E4FEEEC39F50040E0E80F797
:01074900228D
:03000300020006F2
:030006000541327F
:0300130002000EDA
:03000E0005433275
:03000B00020016DA
:03001600053D3273
:03001B0002076A6F
:03076A00053F3216
:10055100A2AF9204C2AFC2A5D2A4D2A7E4FF801871
:100561007590FFC2A7E4FF12073ED2A7E4FF12076E
:100571003EE59030E7077F0A12073E80E3C2A7A25B
:030581000492AF32
:010584002254
:020642008F1116
:10064400120551A2AF9203C2AFC2A5C2A4C2A7852C
:100654001190D2A7E4FF12073EC2A7A20392AF7F74
:040664000A02073E41
:020617008F1141
:10061900120551A2AF9203C2AFD2A5C2A4C2A78547
:100629001190E4FF12073ED2A7E4FF12073EC2A7CA
:09063900A20392AF7F0A02073E02
:10068E00120551A2AF9205C2AFC2A5D2A4D2A775D0
:10069E0090FFE4FF12073EAF90C2A7C2A4A205923C
:0106AE00AF9C
:0106AF002228
:1006B000120551A2AF9206C2AFD2A5D2A4D2A7759D
:0E06C00090FF0000AF90C2A7C2A4A20692AFA6
:0106CE002209
:0A0756007F141206427F3202073EB4
:0A0760007F101206427F3202073EAE
:0605B8008B128A13891466
:1005BE00EF33333354F82440FF120642E4F515AB03
:1005CE0012AA13A9148515827583001202ACFF12AC
:0B05DE0006170515E515C3940840E45E
:0105E90022EF
:1006E90053073F530501ED6003430740EF4480FF83
:0806F9001206427F3202073EA7
:05071100FFAB82AD0DFD
:0A0716008B101206E9AF100206175F
:100668008B1A8A1B891C1206E9AB1AAA1BA91C1231
:100678000293FF60101206177401251CF51CE4355F
:060688001BF51B80E422BB
:10048E008F168D178B181206E9E51854F0700EE5CD
:10049E001954F070047F30800C7F208008E518C45A
:1004AE00540F2430FF120617E51604FFAD1712067F
:1004BE00E9E518540F700EE519540F70047F308063
:1004CE000B7F208007E518540F2430FF12061722E9
:0401D4008F0C8D0DF2
:1001D8007C277D10AF03AE021202FBEF2430FFE450
:1001E8003E8F82F583AE02AF037C277D101202FB9F
:1001F8008C0E8D0FAB82AD0DAF0C120716AE0EAF85
:100208000F7C037DE81202FBEF2430F582E43EF513
:1002180083AE0EAF0F7C037DE81202FB8C0E8D0FB0
:10022800E50C04120711AE0EAF0F7C007D641202BC
:10023800FBEF2430F582E43EF583AE0EAF0F7C0071
:100248007D641202FB8C0E8D0FE50C24021207113F
:10025800AE0EAF0F7C007D0A1202FBEF2430F58250
:10026800E43EF583AE0EAF0F7C007D0A1202FBED73
:100278002430F50FE43CF50EE50C2403120711E5D4
:0B0288000C2404FFAB0FAD0D020716A5
:1005EA007F321207017F381206427F6412073E7F6C
:1005FA000C1206427F6412073E7F011206427F0AEE
:0D060A001207017F061206427F6402073EC0
:10043700C2B57FC81207017FC81207017FC812071C
:10044700017FC81207017FC8120701B2B57FC81222
:1004570007017FC81207017FC81207017FC812076B
:10046700017FC8120701B2B57FC81207011203DD69
:10047700E53A14600804700A12010A80F312001E9C
:0704870080EE1206CF80E9B0
:10051900E4F58EF597F5C1F587F593F594F591F521
:1005290092F595F596F5B1F5B2F5A8F5887D01FF37
:100539001205857D017F011205857D03E4FF120304
:08054900507D037F0102035005
:10058500A2AF9203C2AFEF7012C2A8C289ED700488
:10059500D288801ABD0117C2888013BF0110C2AA74
:1005A500C28BED7004D28A8005BD0102C28AA20306
:0205B50092AF03
:0105B7002221
:10035000A2AF9203C2AFEF703EC28CC2A9C28DEDB4
:100360007011E58954F02408F589E4F58AF58CD2FA
:100370008C8065BD020F5389F0758A58758C9ED2AA
:10038000A9D28C8053BD010D5389F0758A78758C84
:10039000ECD2A9D28C8041EF64017040C28EC2AB16
:1003A000C28FED7011E589540F2480F589E4F58B37
:1003B000F58DD28E8022BD020F53890F758B587533
:1003C0008D9ED2ABD28E8010BD010D53890F758BDF
:0C03D00078758DECD2ABD28EA20392AFF8
:0103DC0022FE
:1004DE00120293FFFE9000011202ACFDEED39D407E
:1004EE0009EE9DFE900001EF80179000011202AC04
:1004FE00FFEEC39F5010EFF4042EFE1202939000F5
:0A050E00011202D98002E4FEAF06DC
:0105180022C0
:1003DD001205191205EAE4F541F542F543F544F528
:1003ED003DF53EF53FF540C200C201F521F522F580
:1003FD0023F524F525F526F527F528F529F52AF514
:10040D002BF52CF52DF52EF52FF530F534F535F5BD
:10041D003BF53CF53AF531F532F536F537F538F56E
:0A042D0039C202C2B7C2B4D2AF2236
:0F0720007F1412073ED2B77F1412073EC2B722D2
:0F072F007F1412073ED2B47F1412073EC2B422C9
:10010A00C28CC2A9C28D758908E4F58AF58CD28C95
:10011A007F1412073ED2B77F1412073EC2B7E532E8
:10012A0060021532E5327010FD7F01120585E4FD8B
:10013A007F0112035012072F7F321207017D037FBE
:10014A0001120350E531702E308928C2898525278E
:10015A00852628852325852426852123852224AFE3
:10016A008CEFFEAD8A7C00E42DF522EC3EF521D21F
:10017A00008003753104E531702E308B28C28B85DF
:10018A002D2F852E30852B2D852C2E85292B852AE2
:10019A002CAF8DEFFEAD8B7C00E42DF52AEC3EF5FD
:1001AA0029D2018003753204AF8CEFFEAD8A7C0040
:1001BA00E42DF522EC3EF521AF8DEFFEAD8BE42D5B
:0A01CA00F52AEC3EF529753A0122F2
:10001E00E4F508F509F50AF50B7D01FF1203507B97
:10002E00007A00793D1204DE7508008F09E5092576
:10003E000BF50BE508350AF50AC3E50B9419E50A2D
:10004E00940040DB7D03E4FF1203500535E5357067
:10005E00020534E53554037013053CE53C7002058A
:10006E003BAB3CAA3B7D017F131201D430002285AD
:10007E002108852209AB09AA08E4FDFF1201D47BF1
:10008E006DE4FD7F051207167B6DE4FD7F061207FA
:10009E0016300123852908852A09AB09AA087D0196
:1000AE00E4FF1201D47B6D7D017F051207167B6D77
:1000BE007D017F06120716E4F50AF50BE531701582
:1000CE00200012C2000537E53770020536050BE534
:1000DE000B7002050AE5327015200112C2010539B6
:1000EE00E53970020538050BE50B7002050AE50BC4
:0B00FE00450A6004753A0222E4F53A5E
:0101090022D3
:1006CF00AB37AA36E4FD7F0A1201D4AB39AA387DC5
:0A06DF00017F0A1201D4E4F53A226B
:0300000002074AAA
:0C074A00787FE4F6D8FD75814402043786
:10029300BB010689828A83E0225002E722BBFE0269
:0902A300E32289828A83E493229C
:1002AC00BB010CE58229F582E5833AF583E0225007
:1002BC0006E92582F8E622BBFE06E92582F8E22251
:0D02CC00E58229F582E5833AF583E493226B
:1002D900F8BB010DE58229F582E5833AF583E8F05B
:1002E900225006E92582C8F622BBFE05E92582C807
:0202F900F222EF
:1002FB00BC000BBE0029EF8DF084FFADF022E4CCE7
:10030B00F875F008EF2FFFEE33FEEC33FCEE9DECAF
:10031B00984005FCEE9DFE0FD5F0E9E4CEFD22EDF5
:10032B00F8F5F0EE8420D21CFEADF075F008EF2F3F
:10033B00FFED33FD4007985006D5F0F222C398FD30
:05034B000FD5F0EA22CD
:00000001FF
