:0F070B007DCD7C01ED1D70011C144C70F7DFF1EA
:01071A0022BC
:0B074800E4FEEEC39F50040E0E80F78D
:010753002283
:03000300020006F2
:030006000541327F
:0300130002000EDA
:03000E0005433275
:03000B00020016DA
:03001600053D3273
:03001B0002077465
:03077400053F320C
:10055B00A2AF9204C2AFC2A5D2A4D2A7E4FF801867
:10056B007590FFC2A7E4FF120748D2A7E4FF12075A
:10057B0048E59030E7077F0A12074880E3C2A7A23D
:03058B000492AF28
:01058E00224A
:02064C008F110C
:10064E0012055BA2AF9203C2AFC2A5C2A4C2A78518
:10065E001190D2A7E4FF120748C2A7A20392AF7F60
:04066E000A0207482D
:020621008F1137
:1006230012055BA2AF9203C2AFD2A5C2A4C2A78533
:100633001190E4FF120748D2A7E4FF120748C2A7AC
:09064300A20392AF7F0A020748EE
:1006980012055BA2AF9205C2AFC2A5D2A4D2A775BC
:1006A80090FFE4FF120748AF90C2A7C2A4A2059228
:0106B800AF92
:0106B900221E
:1006BA0012055BA2AF9206C2AFD2A5D2A4D2A77589
:0E06CA0090FF0000AF90C2A7C2A4A20692AF9C
:0106D80022FF
:0A0760007F1412064C7F3202074896
:0A076A007F1012064C7F3202074890
:0605C2008B128A1389145C
:1005C800EF33333354F82440FF12064CE4F515ABEF
:1005D80012AA13A9148515827583001202B6FF1298
:0B05E80006210515E515C3940840E44A
:0105F30022E5
:1006F30053073F530501ED6003430740EF4480FF79
:0807030012064C7F3202074888
:05071B00FFAB82AD0DF3
:0A0720008B101206F3AF1002062141
:100672008B1A8A1B891C1206F3AB1AAA1BA91C121D
:10068200029DFF60101206217401251CF51CE43541
:060692001BF51B80E422B1
:100498008F168D178B181206F3E51854F0700EE5B9
:1004A8001954F070047F30800C7F208008E518C450
:1004B800540F2430FF120621E51604FFAD1712066B
:1004C800F3E518540F700EE519540F70047F30804F
:1004D8000B7F208007E518540F2430FF12062122D5
:0401DE008F0C8D0DE8
:1001E2007C277D10AF03AE02120305EF2430FFE43B
:1001F2003E8F82F583AE02AF037C277D101203058A
:100202008C0E8D0FAB82AD0DAF0C120720AE0EAF70
:100212000F7C037DE8120305EF2430F582E43EF5FE
:1002220083AE0EAF0F7C037DE81203058C0E8D0F9B
:10023200E50C0412071BAE0EAF0F7C007D641203A7
:1002420005EF2430F582E43EF583AE0EAF0F7C005D
:100252007D641203058C0E8D0FE50C240212071B20
:10026200AE0EAF0F7C007D0A120305EF2430F5823B
:10027200E43EF583AE0EAF0F7C007D0A120305ED5E
:100282002430F50FE43CF50EE50C240312071BE5C0
:0B0292000C2404FFAB0FAD0D02072091
:1005F4007F3212070B7F3812064C7F641207487F44
:100604000C12064C7F641207487F0112064C7F0AC5
:0D06140012070B7F0612064C7F6402074898
:10044100C2B57FC812070B7FC812070B7FC81207FE
:100451000B7FC812070B7FC812070BB2B57FC812FA
:10046100070B7FC812070B7FC812070B7FC8120743
:100471000B7FC812070BB2B57FC812070B1203E737
:10048100E53A14600804700A12010A80F312001E92
:0704910080EE1206D980E99C
:10052300E4F58EF597F5C1F587F593F594F591F517
:1005330092F595F596F5B1F5B2F5A8F5887D01FF2D
:1005430012058F7D017F0112058F7D03E4FF1203E6
:080553005A7D037F0102035AE7
:10058F00A2AF9203C2AFEF7012C2A8C289ED70047E
:10059F00D288801ABD0117C2888013BF0110C2AA6A
:1005AF00C28BED7004D28A8005BD0102C28AA203FC
:0205BF0092AFF9
:0105C1002217
:10035A00A2AF9203C2AFEF703EC28CC2A9C28DEDAA
:10036A007011E58954F02408F589E4F58AF58CD2F0
:10037A008C8065BD020F5389F0758A58758C9ED2A0
:10038A00A9D28C8053BD010D5389F0758A78758C7A
:10039A00ECD2A9D28C8041EF64017040C28EC2AB0C
:1003AA00C28FED7011E589540F2480F589E4F58B2D
:1003BA00F58DD28E8022BD020F53890F758B587529
:1003CA008D9ED2ABD28E8010BD010D53890F758BD5
:0C03DA0078758DECD2ABD28EA20392AFEE
:0103E60022F4
:1004E80012029DFFFE9000011202B6FDEED39D4060
:1004F80009EE9DFE900001EF80179000011202B6F0
:10050800FFEEC39F5010EFF4042EFE12029D9000E0
:0A051800011202E38002E4FEAF06C8
:0105220022B6
:1003E7001205231205F4E4F541F542F543F544F50A
:1003F7003DF53EF53FF540C200C201F521F522F576
:1004070023F524F525F526F527F528F529F52AF509
:100417002BF52CF52DF52EF52FF530F534F535F5B3
:100427003BF53CF53AF531F532F536F537F538F564
:0A04370039C202C2B7C2B4D2AF222C
:0F072A007F14120748D2B77F14120748C2B722B4
:0F0739007F14120748D2B47F14120748C2B422AB
:10010A00C2A8C289D288C28CC2A9C28D758908E4E4
:10011A00F58AF58CD28C7F14120748D2B77F141255
:10012A000748C2B7E53260021532E5327010FD7F2A
:10013A000112058FE4FD7F0112035A1207397F323B
:10014A0012070B7D037F0112035AE531702E3089A5
:10015A0028C289852527852628852325852426855D
:10016A002123852224AF8CEFFEAD8A7C00E42DF595
:10017A0022EC3EF521D2008003753104E531702E60
:10018A00308B28C28B852D2F852E30852B2D852CE3
:10019A002E85292B852A2CAF8DEFFEAD8B7C00E4B2
:1001AA002DF52AEC3EF529D2018003753204AF8C75
:1001BA00EFFEAD8A7C00E42DF522EC3EF521AF8DF1
:1001CA00EFFEAD8BE42DF52AEC3EF529D200D201E3
:0401DA00753A01224F
:10001E00E4F508F509F50AF50B7D01FF12035A7B8D
:10002E00007A00793D1204E87508008F09E509256C
:10003E000BF50BE508350AF50AC3E50B9419E50A2D
:10004E00940040DB7D03E4FF12035A0535E535705D
:10005E00020534E53554037013053CE53C7002058A
:10006E003BAB3CAA3B7D017F131201DE30002285A3
:10007E002108852209AB09AA08E4FDFF1201DE7BE7
:10008E006DE4FD7F051207207B6DE4FD7F061207F0
:10009E0020300123852908852A09AB09AA087D018C
:1000AE00E4FF1201DE7B6D7D017F051207207B6D63
:1000BE007D017F06120720E4F50AF50BE531701578
:1000CE00200012C2000537E53770020536050BE534
:1000DE000B7002050AE5327015200112C2010539B6
:1000EE00E53970020538050BE50B7002050AE50BC4
:0B00FE00450A6004753A0222E4F53A5E
:0101090022D3
:1006D900AB37AA36E4FD7F0A1201DEAB39AA387DB1
:0A06E900017F0A1201DEE4F53A2257
:03000000020754A0
:0C075400787FE4F6D8FD75814402044172
:10029D00BB010689828A83E0225002E722BBFE025F
:0902AD00E32289828A83E4932292
:1002B600BB010CE58229F582E5833AF583E02250FD
:1002C60006E92582F8E622BBFE06E92582F8E22247
:0D02D600E58229F582E5833AF583E4932261
:1002E300F8BB010DE58229F582E5833AF583E8F051
:1002F300225006E92582C8F622BBFE05E92582C8FD
:02030300F222E4
:10030500BC000BBE0029EF8DF084FFADF022E4CCDC
:10031500F875F008EF2FFFEE33FEEC33FCEE9DECA5
:10032500984005FCEE9DFE0FD5F0E9E4CEFD22EDEB
:10033500F8F5F0EE8420D21CFEADF075F008EF2F35
:10034500FFED33FD4007985006D5F0F222C398FD26
:050355000FD5F0EA22C3
:00000001FF
