:0F0917007DCD7C01ED1D70011C144C70F7DFF1DC
:0109260022AE
:0B095400E4FEEEC39F50040E0E80F77F
:01095F002275
:03000300020006F2
:030006000541327F
:0300130002000EDA
:03000E0005433275
:03000B00020016DA
:03001600053D3273
:03001B000207FBDE
:0307FB00053F3285
:10076200A2AF9204C2AFC2A5D2A4D2A7E4FF80185E
:100772007590FFC2A7E4FF120954D2A7E4FF120941
:1007820054E59030E7077F0A12095480E3C2A7A21A
:030792000492AF1F
:010795002241
:020858008F11FE
:10085A00120762A2AF9203C2AFC2A5C2A4C2A78501
:10086A001190D2A7E4FF120954C2A7A20392AF7F44
:04087A000A02095411
:02082D008F1129
:10082F00120762A2AF9203C2AFD2A5C2A4C2A7851C
:10083F001190E4FF120954D2A7E4FF120954C2A782
:09084F00A20392AF7F0A020954D2
:1008A400120762A2AF9205C2AFC2A5D2A4D2A775A5
:1008B40090FFE4FF120954AF90C2A7C2A4A205920C
:0108C400AF84
:0108C5002210
:1008C600120762A2AF9206C2AFD2A5D2A4D2A77572
:0E08D60090FF0000AF90C2A7C2A4A20692AF8E
:0108E40022F1
:0A096C007F141208587F320209546C
:0A0976007F101208587F3202095466
:0607C9008B128A13891453
:1007CF00EF33333354F82440FF120858E4F515ABD8
:1007DF0012AA13A9148515827583001201FCFF124A
:0B07EF00082D0515E515C3940840E433
:0107FA0022DC
:1008FF0053073F530501ED6003430740EF4480FF6B
:08090F001208587F320209545E
:05092700FFAB82AD0DE5
:0A092C008B101208FFAF1002082D17
:10087E008B1A8A1B891C1208FFAB1AAA1BA91C1201
:10088E0001E3FF601012082D7401251CF51CE435E0
:06089E001BF51B80E422A3
:10069F008F168D178B181208FFE51854F0700EE5A2
:1006AF001954F070047F30800C7F208008E518C447
:1006BF00540F2430FF12082DE51604FFAD17120852
:1006CF00FFE518540F700EE519540F70047F30803A
:1006DF000B7F208007E518540F2430FF12082D22BE
:0404A2008F0C8D0D21
:1004A6007C277D10AF03AE0212024BEF2430FFE42F
:1004B6003E8F82F583AE02AF037C277D1012024B7E
:1004C6008C0E8D0FAB82AD0DAF0C12092CAE0EAF9C
:1004D6000F7C037DE812024BEF2430F582E43EF5F3
:1004E60083AE0EAF0F7C037DE812024B8C0E8D0F90
:1004F600E50C04120927AE0EAF0F7C007D641202D4
:100506004BEF2430F582E43EF583AE0EAF0F7C0050
:100516007D6412024B8C0E8D0FE50C240212092706
:10052600AE0EAF0F7C007D0A12024BEF2430F5822F
:10053600E43EF583AE0EAF0F7C007D0A12024BED52
:100546002430F50FE43CF50EE50C2403120927E5EB
:0B0556000C2404FFAB0FAD0D02092CBC
:100800007F321209177F381208587F641209547F0B
:100810000C1208587F641209547F011208587F0A8D
:0D0820001209177F061208587F6402095460
:10064800C2B57FC81209177FC81209177FC81209D7
:10065800177FC81209177FC8120917B2B57FC812C9
:1006680009177FC81209177FC81209177FC812090E
:10067800177FC8120917B2B57FC81209171205EEFD
:10068800E53A14600804700A1203CE80F31202AE31
:0706980080EE1208E580E985
:10072A00E4F58EF597F5C1F587F593F594F591F50E
:10073A0092F595F596F5B1F5B2F5A8F5887D01FF24
:10074A001207967D017F011207967D03E4FF1205C9
:08075A00617D037F01020561CE
:10079600A2AF9203C2AFEF7012C2A8C289ED700475
:1007A600D288801ABD0117C2888013BF0110C2AA61
:1007B600C28BED7004D28A8005BD0102C28AA203F3
:0207C60092AFF0
:0107C800220E
:10056100A2AF9203C2AFEF703EC28CC2A9C28DEDA1
:100571007011E58954F02408F589E4F58AF58CD2E7
:100581008C8065BD020F5389F0758A58758C9ED297
:10059100A9D28C8053BD010D5389F0758A78758C71
:1005A100ECD2A9D28C8041EF64017040C28EC2AB03
:1005B100C28FED7011E589540F2480F589E4F58B24
:1005C100F58DD28E8022BD020F53890F758B587520
:1005D1008D9ED2ABD28E8010BD010D53890F758BCC
:0C05E10078758DECD2ABD28EA20392AFE5
:0105ED0022EB
:1006EF001201E3FFFE9000011201FCFDEED39D40CD
:1006FF0009EE9DFE900001EF80179000011201FCA2
:10070F00FFEEC39F5010EFF4042EFE1201E3900092
:0A071F00011202298002E4FEAF0679
:0107290022AD
:1005EE0012072A120800E4F541F542F543F544F5E9
:1005FE003DF53EF53FF540C200C201F521F522F56D
:10060E0023F524F525F526F527F528F529F52AF500
:10061E002BF52CF52DF52EF52FF530F534F535F5AA
:10062E003BF53CF53AF531F532F536F537F538F55B
:0A063E0039C202C2B7C2B4D2AF2223
:0F0936007F14120954D2B77F14120954C2B7228A
:0F0945007F14120954D2B47F14120954C2B42281
:1003CE00C2A8C289D288C28CC2A9C28D758908E41E
:1003DE00F58AF58CD28C7F14120954D2B77F141281
:1003EE000954C2B7E53260021532E5327010FD7F56
:1003FE0001120796E4FD7F011205611209457F3255
:10040E001209177D037F01120561E531702E3089C7
:10041E0028C2898525278526288523258524268596
:10042E002123852224AF8CEFFEAD8A7C00E42DF5CE
:10043E0022EC3EF521D2008003753104E531702E99
:10044E00308B28C28B852D2F852E30852B2D852C1C
:10045E002E85292B852A2CAF8DEFFEAD8B7C00E4EB
:10046E002DF52AEC3EF529D2018003753204D20017
:10047E00D201AF8CEFFEAD8A7C00E42DF522EC3E6E
:10048E00F521AF8DEFFEAD8BE42DF52AEC3EF5296F
:04049E00753A012288
:1002AE00E4F508F509F50AF50B7D01FF1205617BF2
:1002BE00007A00793D1206EF7508008F09E50925D1
:1002CE000BF50BE508350AF50AC3E50B9419E50A9B
:1002DE00940040DB7D03E4FF1205610535E53570C2
:1002EE00020534E53554037013053CE53C700205F8
:1002FE003BAB3CAA3B7D017F131204A230003CAC09
:10030E0021AD22E41201297B7B7A1479AE783E125C
:10031E00001E1201628E088F09852108852209AB05
:10032E0009AA08E4FDFF1204A27B6DE4FD7F05120D
:10033E00092C7B6DE4FD7F0612092C30013DAC29A2
:10034E00AD2AE41201297B7B7A1479AE783E120035
:10035E001E1201628E088F09852908852A09AB09AC
:10036E00AA087D01E4FF1204A27B6D7D017F0512B8
:10037E00092C7B6D7D017F0612092CE4F50AF50B25
:10038E00E5317015200012C2000537E53770020501
:10039E0036050BE50B7002050AE5327015200112C9
:1003AE00C2010539E53970020538050BE50B7002FF
:0F03BE00050AE50B450A6004753A0222E4F53A98
:0103CD00220D
:1008E500AB37AA36E4FD7F0A1204A2AB39AA387DDC
:0A08F500017F0A1204A2E4F53A2282
:10001E00EC4D6011E8497017ED33EC3304600DE4DC
:10002E00FCFFFEFD22E933E8330470F80201CE1224
:10003E00019958046009E4CC248150062850090225
:10004E0001D82840030201D5C0E0EB4A7044B980C4
:10005E0006D0E0FB0201C4EF4E701CBD8008EBFF22
:10006E00EAFEE9FD80EBE98DF0A4FEE5F002010762
:10007E00E9CDF9EAFEEBFFEF89F0A4FCE5F0CE89BD
:10008E00F0A42EFFE435F0CD89F0A42DFEE435F07A
:10009E008067EF4E7005BD80D780C3EF8BF0A4ACA8
:1000AE00F0EE8BF0A42CFCE435F0F8EF8AF0A42CE3
:1000BE00E5F038FCE433CB8DF0A42CFCE5F03BF8F6
:1000CE00EE8AF0A42CFCE5F038F8E433CF89F0A4E6
:1000DE002CFCE5F038CF3400CE89F0A42FFFE5F0EC
:1000EE003EFEE433C98DF0A42EFEE5F039CD8AF044
:1000FE00A42FFFE5F03EFEE43DFD33D0E0FB5007BC
:10010E000BBB000F0201D8EC2CFCEF33FFEE33FEDD
:06011E00ED33FD0201B00B
:1001240075F020800E75F010800575F0087D007E56
:10013400007F003392D530D5031202A0EC33401077
:10014400EF33FFEE33FEED33FDEC33FCD5F0ED225F
:0E015400E5F0247EA2D513CC92E7CDCEFF229B
:10016200EDD2E7CD33EC3392D524814006E4FFFE95
:10017200FDFC22FCE4CFCECDCC24E0501174FF80F4
:10018200EDC3CC13CCCD13CDCE13CECF13CF047091
:07019200F030D5DE0202A0EF
:10019900E9D2E7C933E833F892D5EDD2E7CD33ECAC
:0701A90033FC5002B2D52225
:1001B000EC30E7100FBF000C0EBE00080DBD0004B0
:1001C0000BEB6014A2D5EB13FCED92E7FD2274FF5C
:1001D000FCFDFEFF22E480F8A2D574FF13FC7D80B5
:0301E000E480EFC9
:0300000002096092
:0C096000787FE4F6D8FD7581440206485B
:1001E300BB010689828A83E0225002E722BBFE021A
:0901F300E32289828A83E493224D
:1001FC00BB010CE58229F582E5833AF583E02250B8
:10020C0006E92582F8E622BBFE06E92582F8E22201
:0D021C00E58229F582E5833AF583E493221B
:10022900F8BB010DE58229F582E5833AF583E8F00B
:10023900225006E92582C8F622BBFE05E92582C8B7
:02024900F2229F
:10024B00BC000BBE0029EF8DF084FFADF022E4CC97
:10025B00F875F008EF2FFFEE33FEEC33FCEE9DEC60
:10026B00984005FCEE9DFE0FD5F0E9E4CEFD22EDA6
:10027B00F8F5F0EE8420D21CFEADF075F008EF2FF0
:10028B00FFED33FD4007985006D5F0F222C398FDE1
:05029B000FD5F0EA227E
:0E02A000C3E49FFFE49EFEE49DFDE49CFC226F
:00000001FF
