:0F08D2007DCD7C01ED1D70011C144C70F7DFF122
:0108E10022F4
:0B08EF00E4FEEEC39F50040E0E80F7E5
:0108FA0022DB
:03000300020006F2
:03000600053F3281
:0300130002000EDA
:03000E0005413277
:03000B00020016DA
:03001600053B3275
:03001B0002092EA9
:03092E00053D3252
:10074000A2AF9201C2AFC2A5D2A4D2A7E4FF801883
:100750007590FFC2A7E4FF1208EFD2A7E4FF1208CA
:10076000EFE59030E7077F0A1208EF80E3C2A7A207
:030770000192AF44
:010773002263
:02082D008F0D2D
:10082F00120740A2AF9200C2AFC2A5C2A4C2A78551
:10083F000D90D2A7E4FF1208EFC2A7A20092AF7FDC
:04084F000A0208EFA2
:0207D4008F0D87
:1007D600120740A2AF9200C2AFD2A5C2A4C2A7859B
:1007E6000D90E4FF1208EFD2A7E4FF1208EFC2A7AC
:0907F600A20092AF7F0A0208EF95
:10087900120740A2AF9202C2AFC2A5D2A4D2A775F5
:1008890090FFE4FF1208EFAF90C2A7C2A4A20292A0
:01089900AFAF
:01089A00223B
:10089B00120740A2AF9203C2AFD2A5D2A4D2A775C2
:0E08AB0090FF0000AF90C2A7C2A4A20392AFBC
:0108B900221C
:0A0907007F1412082D7F320208EF62
:0A0911007F1012082D7F320208EF5C
:060774008B0E8A0F8910B4
:10077A00EF33333354F82440FF12082DE4F511AB5C
:10078A000EAA0FA91085118275830012041DFF128B
:0B079A0007D40511E511C3940840E4EA
:0107A5002231
:1008BA0053073F530501ED6003430740EF4480FFB0
:0808CA0012082D7F320208EF35
:0A091B008B0C1208BAAF0C0207D4CF
:100853008B098A0A890B1208BAAB09AA0AA90B12D7
:100863000404FF60101207D47401250BF50BE43563
:060873000AF50A80E422F0
:10062F008F128D138B141208BAE51454F0700EE567
:10063F001554F070047F30800C7F208008E514C4BF
:10064F00540F2430FF1207D4E51204FFAD13120824
:10065F00BAE514540F700EE515540F70047F3080F7
:10066F000B7F208007E514540F2430FF1207D4228C
:100800007F321208D27F3812082D7F641208EF7FE2
:100810000C12082D7F641208EF7F0112082D7F0A49
:0D0820001208D27F0612082D7F640208EF37
:10055E00C2B57FC81208D27FC81208D27FC812084F
:10056E00D27FC81208D27FC81208D2B2B57FC81285
:10057E0008D27FC81208D27FC81208D27FC81208CC
:10058E00D27FC81208D2B2B57FC81208D212067F27
:10059E007B69E4FD7F0A12091BE53414600C1460BC
:1005AE000E2402700F12092580EF1205C780EA1281
:0905BE00001E80E512032E80E00E
:10070800E4F58EF597F5C1F587F593F594F591F530
:1007180092F595F596F5B1F5B2F5A8F5887D01FF46
:100728001207A67D017F011207A67D03E4FF1204CC
:08073800D37D037F010204D30D
:1007A600A2AF9200C2AFEF7012C2A8C289C288ED92
:1007B6007004D2A88013BD0110800EBF010BC2AA1F
:0D07C600C28BC28AED7002D2AAA20092AFCF
:0107D3002203
:1004D300A2AF9200C2AFEF703DC28CC2A9C28DED34
:1004E300700FE58954F02408F589E4F58AF58C80CA
:1004F30021BD020B5389F0758A58758C9E8013BDFC
:10050300010B5389F0758A78758CEC8005BD030265
:100513008040C28D8040EF6401703FC28EC2ABC287
:100523008FED700FE589540F2480F589E4F58BF581
:100533008D8021BD020B53890F758B58758D9E805D
:1005430013BD010B53890F758B78758DEC8005BD39
:0A05530003028002C28FA20092AFE3
:01055D00227B
:0D08E20046534D204552524F522121210016
:1006CD00120404FFFE90000112041DFDEED39D40A7
:1006DD0009EE9DFE900001EF801790000112041DA0
:1006ED00FFEEC39F5010EFF4042EFE120404900091
:0A06FD000112044A8002E4FEAF0679
:0107070022CF
:10067F00120708120800E4F53FF540F541F542F581
:10068F003BF53CF53DF53EF521F522F523F524F537
:10069F0025F526F527F528F529F52AF52BF52CF55F
:1006AF002DF52EF52FF530F531F532F543F544F5EF
:0E06BF0037F538F535F536C2B7C2B4D2AF22E2
:09092500E4F543F54475340122A8
:1005C700E4F5087D01FF1207A67D017F011207A64A
:1005D700C28CC2A9C28DE4F58CF58AD28CC28EC2B8
:1005E700ABC28FF58DF58BF589C2B47F501208EF3A
:1005F700D2B4AF36EF2450FF1208EFC2B47F3212E5
:1006070008D2C28CC28EAF8CEFFEAD8A7C00E42D7F
:10061700F52CEC3EF52BAF8DEFFEAD8BE42DF524DD
:07062700EC3EF523753402DF
:01062E0022A9
:10001E007D01E4FF1204D3D28CD2A97B007A007941
:10002E003B1206CD7508008F09AE087C007D0A12C2
:10003E00046CEF2544F544EE3543F543D3E5449483
:10004E00E8E543940340D4E4F543F5447D03FF1201
:10005E0004D3753700753804E4F521F522E53864CC
:10006E000445376002612AF537F5380536E53670F6
:10007E00020535AE35AF367C277D1012047EEF2497
:10008E0030F509E43EF508AE35AF367C277D10120B
:10009E00047E8C0A8D0B7B737D017F0A12091B7BFC
:1000AE00657D017F0B12091B7B637D017F0C12099D
:1000BE001B7B3A7D017F0D12091BAB097D017F0E63
:1000CE0012091BAE0AAF0B7C037DE812047EEF24EF
:1000DE0030F509E43EF508AE0AAF0B7C037DE8125D
:1000EE00047E8C0A8D0BAB097D017F0F12091BAEAE
:1000FE000AAF0B7C007D6412047EEF2430F509E418
:10010E003EF508AE0AAF0B7C007D6412047E8C0AAD
:10011E008D0BAB097D017F1012091BAE0AAF0B7C54
:10012E00007D0A12047EEF2430F509E43EF508AE98
:10013E000AAF0B7C007D0A12047EED2430F50BE431
:10014E003CF50AAB097D017F1112091BAB0B7D013A
:10015E007F1212091BE52425E0FFE52333AB07C30D
:10016E0013FAEB137C037DE8FFAE0212047EAA069F
:10017E00AB077C017D5412046CAA06AB077C277D6D
:10018E001012047EEF2430F509E43EF5087C277D3D
:10019E0010AF03AE0212047E8C0A8D0BAB09E4FD88
:1001AE00FF12091BAE0AAF0B7C037DE812047EEF33
:1001BE002430F509E43EF508AE0AAF0B7C037DE86A
:1001CE0012047E8C0A8D0BAB09E4FD7F0112091B14
:1001DE00AE0AAF0B7C007D6412047EEF2430F5096D
:1001EE00E43EF508AE0AAF0B7C007D6412047E8CF3
:1001FE000A8D0BAB09E4FD7F0212091BAE0AAF0B91
:10020E007C007D0A12047EEF2430F509E43EF508E9
:10021E00AE0AAF0B7C007D0A12047EED2430F50B86
:10022E00E43CF50AAB09E4FD7F0312091BAB0BE4BA
:10023E00FD7F0412091B7B6DE4FD7F0512091B7BFC
:10024E006DE4FD7F0612091BAA2BAB2C7C277D10BB
:10025E00AF03AE0212047EEF2430F509E43EF5083A
:10026E00AE02AF037C277D1012047E8C0A8D0BAB81
:10027E00097D01E4FF12091BAE0AAF0B7C037DE87A
:10028E0012047EEF2430F509E43EF508AE0AAF0BFA
:10029E007C037DE812047E8C0A8D0BAB097D017FF9
:1002AE000112091BAE0AAF0B7C007D6412047EEFB7
:1002BE002430F509E43EF508AE0AAF0B7C007D64F0
:1002CE0012047E8C0A8D0BAB097D017F0212091B75
:1002DE00AE0AAF0B7C007D0A12047EEF2430F509C6
:1002EE00E43EF508AE0AAF0B7C007D0A12047EEDEB
:1002FE002430F50BE43CF50AAB097D017F031209AE
:10030E001BAB0B7D017F0412091B7B6D7D017F05ED
:0F031E0012091B7B6D7D017F0612091BE4F5346C
:01032D0022AD
:10032E007B007A00793B1206CD8F08EF75F00AA498
:10033E00AEF02544F544EE3543F543D3E54494E859
:10034E00E543940340DAE4F543F5447D03FF1204DC
:10035E00D3753700753804E4F5087B20E4FDAF084B
:10036E0012091B0508E508C3941040EEE4F5087B5E
:10037E00207D01AF0812091B0508E508C394104043
:10038E00EE7BFF7A0879E2E4FDFF1208537B667D6F
:10039E0001E4FF12091B7B737D017F0112091B7B98
:1003AE006D7D017F0212091B7B3A7D017F031209CD
:1003BE001BE53475F064842430FB7D017F04120943
:1003CE001BE53475F06484E5F075F00A842430FB87
:1003DE007D017F0512091BE53475F00A84E5F024D2
:1003EE0030FB7D017F0612091B7B647D017F0712A6
:0503FE00091B853434E9
:0104030022D6
:030000000208FBF8
:0C08FB00787FE4F6D8FD75814402055EAC
:10040400BB010689828A83E0225002E722BBFE02F6
:09041400E32289828A83E4932229
:10041D00BB010CE58229F582E5833AF583E0225094
:10042D0006E92582F8E622BBFE06E92582F8E222DE
:0D043D00E58229F582E5833AF583E49322F8
:10044A00F8BB010DE58229F582E5833AF583E8F0E8
:10045A00225006E92582C8F622BBFE05E92582C894
:02046A00F2227C
:10046C00EF8DF0A4A8F0CF8CF0A428CE8DF0A42EA4
:02047C00FE225E
:10047E00BC000BBE0029EF8DF084FFADF022E4CC62
:10048E00F875F008EF2FFFEE33FEEC33FCEE9DEC2B
:10049E00984005FCEE9DFE0FD5F0E9E4CEFD22ED71
:1004AE00F8F5F0EE8420D21CFEADF075F008EF2FBB
:1004BE00FFED33FD4007985006D5F0F222C398FDAC
:0504CE000FD5F0EA2249
:00000001FF
