:0F08EA007DCD7C01ED1D70011C144C70F7DFF10A
:0108F90022DC
:0B090900E4FEEEC39F50040E0E80F7CA
:0109140022C0
:03000300020006F2
:030006000541327F
:0300130002000EDA
:03000E0005433275
:03000B00020016DA
:03001600053D3273
:03001B0002093F98
:03093F00053F323F
:10072F00A2AF9204C2AFC2A5D2A4D2A7E4FF801891
:10073F007590FFC2A7E4FF120909D2A7E4FF1209BF
:10074F0009E59030E7077F0A12090980E3C2A7A2E3
:03075F000492AF52
:010762002274
:02082B008F112B
:10082D0012072FA2AF9203C2AFC2A5C2A4C2A78561
:10083D001190D2A7E4FF120909C2A7A20392AF7FBC
:04084D000A02090989
:020800008F1156
:1008020012072FA2AF9203C2AFD2A5C2A4C2A7857C
:100812001190E4FF120909D2A7E4FF120909C2A745
:09082200A20392AF7F0A0209094A
:1008770012072FA2AF9205C2AFC2A5D2A4D2A77505
:1008870090FFE4FF120909AF90C2A7C2A4A2059284
:01089700AFB1
:01089800223D
:1008990012072FA2AF9206C2AFD2A5D2A4D2A775D2
:0E08A90090FF0000AF90C2A7C2A4A20692AFBB
:0108B700221E
:0A07F5007F1412082B7F320209095D
:0A0921007F1012082B7F3202090933
:060796008B128A13891486
:10079C00EF33333354F82440FF12082BE4F515AB38
:1007AC0012AA13A9148515827583001201FCFF127D
:0B07BC0008000515E515C3940840E493
:0107C700220F
:1008D20053073F530501ED6003430740EF4480FF98
:0808E20012082B7F3202090904
:0508FA00FFAB82AD0D13
:0A08FF008B101208D2AF100208009F
:100851008B1A8A1B891C1208D2AB1AAA1BA91C125B
:1008610001E3FF60101208007401251CF51CE4353A
:060871001BF51B80E422D0
:10066C008F168D178B181208D2E51854F0700EE502
:10067C001954F070047F30800C7F208008E518C47A
:10068C00540F2430FF120800E51604FFAD171208B2
:10069C00D2E518540F700EE519540F70047F30809A
:1006AC000B7F208007E518540F2430FF120800221E
:0403C2008F0C8D0D02
:1003C6007C277D10AF03AE0212024BEF2430FFE410
:1003D6003E8F82F583AE02AF037C277D1012024B5F
:1003E6008C0E8D0FAB82AD0DAF0C1208FFAE0EAFAB
:1003F6000F7C037DE812024BEF2430F582E43EF5D4
:1004060083AE0EAF0F7C037DE812024B8C0E8D0F70
:10041600E50C041208FAAE0EAF0F7C007D641202E2
:100426004BEF2430F582E43EF583AE0EAF0F7C0031
:100436007D6412024B8C0E8D0FE50C24021208FA15
:10044600AE0EAF0F7C007D0A12024BEF2430F58210
:10045600E43EF583AE0EAF0F7C007D0A12024BED33
:100466002430F50FE43CF50EE50C24031208FAE5FA
:0B0476000C2404FFAB0FAD0D0208FFCB
:1007C8007F321208EA7F3812082B7F641209097FEA
:1007D8000C12082B7F641209097F0112082B7F0A6B
:0D07E8001208EA7F0612082B7F640209093F
:10061500C2B57FC81208EA7FC81208EA7FC8120867
:10062500EA7FC81208EA7FC81208EAB2B57FC81285
:1006350008EA7FC81208EA7FC81208EA7FC81208CC
:10064500EA7FC81208EAB2B57FC81208EA1205BBEC
:10065500E53A14600804700A12048180F31202AEB0
:0706650080EE1208B880E9E5
:1006F700E4F58EF597F5C1F587F593F594F591F542
:1007070092F595F596F5B1F5B2F5A8F5887D01FF57
:100717001207637D017F011207637D03E4FF120562
:080727002E7D037F0102052E67
:10076300A2AF9203C2AFEF7012C2A8C289ED7004A8
:10077300D288801ABD0117C2888013BF0110C2AA94
:10078300C28BED7004D28A8005BD0102C28AA20326
:0207930092AF23
:010795002241
:10052E00A2AF9203C2AFEF703EC28CC2A9C28DEDD4
:10053E007011E58954F02408F589E4F58AF58CD21A
:10054E008C8065BD020F5389F0758A58758C9ED2CA
:10055E00A9D28C8053BD010D5389F0758A78758CA4
:10056E00ECD2A9D28C8041EF64017040C28EC2AB36
:10057E00C28FED7011E589540F2480F589E4F58B57
:10058E00F58DD28E8022BD020F53890F758B587553
:10059E008D9ED2ABD28E8010BD010D5389F0758B1E
:0C05AE0078758DECD2ABD28EA20392AF18
:0105BA00221E
:1006BC001201E3FFFE9000011201FCFDEED39D4000
:1006CC0009EE9DFE900001EF80179000011201FCD5
:1006DC00FFEEC39F5010EFF4042EFE1201E39000C6
:0A06EC00011202298002E4FEAF06AD
:0106F60022E1
:1005BB001206F71207C8E4F541F542F543F544F589
:1005CB003DF53EF53FF540C200C201F521F522F5A0
:1005DB0023F524F525F526F527F528F529F52AF534
:1005EB002BF52CF52DF52EF52FF530F534F535F5DE
:1005FB003BF53CF53AF531F532F536F537F538F58F
:0A060B0039C202C2B7C2B4D2AF2256
:0A092B00D2B77F14120909C2B722E7
:0A093500D2B47F14120909C2B422E3
:10048100E53160021531E531700EFDFF120763E4BD
:10049100FDFF12052E12092BE53260021532E532FD
:1004A1007010FD7F01120763E4FD7F0112052E121A
:1004B10009357F321208EA7D03E4FF12052E7D0320
:1004C1007F0112052EE531702E308928C2898525DC
:1004D10027852628852325852426852123852224F1
:1004E100AF8CEFFEAD8A7C00E42DF522EC3EF521C8
:1004F100D2008003753104E531702E308B28C28B18
:10050100852D2F852E30852B2D852C2E85292B850C
:100511002A2CAF8DEFFEAD8B7C00E42DF52AEC3E4D
:0D052100F529D2018003753204753A0122DC
:1002AE00E4F508F509F50AF50B7D01FF12052E7B25
:1002BE00007A00793D1206BC7508008F09E5092504
:1002CE000BF50BE508350AF50AC3E50B9419E50A9B
:1002DE00940040DB7D03E4FF12052E0535E53570F5
:1002EE00020534E53554037013053CE53C700205F8
:1002FE003BAB3CAA3B7D017F131203C2300038C2D8
:10030E0000AC21AD22E41201297B7B7A1479AE7800
:10031E003E12001E1201628E088F09AB09AA08E474
:10032E00FDFF1203C27B6DE4FD7F051208FF7B6D9E
:10033E00E4FD7F061208FF300139C201AC29AD2A57
:10034E00E41201297B7B7A1479AE783E12001E12DC
:10035E0001628E088F09AB09AA087D01E4FF120322
:10036E00C27B6D7D017F051208FF7B6D7D017F06CF
:10037E001208FFE4F50AF50BE531701320001005A5
:10038E0037E53770020536050BE50B7002050AE5F9
:10039E003270132001100539E53970020538050B4E
:1003AE00E50B7002050AE50B450A6004753A022258
:0303BE00E4F53A29
:0103C1002219
:1008B800AB37AA36E4FD7F0A1203C2AB39AA387DEA
:0A08C800017F0A1203C2E4F53A2290
:10001E00EC4D6011E8497017ED33EC3304600DE4DC
:10002E00FCFFFEFD22E933E8330470F80201CE1224
:10003E00019958046009E4CC248150062850090225
:10004E0001D82840030201D5C0E0EB4A7044B980C4
:10005E0006D0E0FB0201C4EF4E701CBD8008EBFF22
:10006E00EAFEE9FD80EBE98DF0A4FEE5F002010762
:10007E00E9CDF9EAFEEBFFEF89F0A4FCE5F0CE89BD
:10008E00F0A42EFFE435F0CD89F0A42DFEE435F07A
:10009E008067EF4E7005BD80D780C3EF8BF0A4ACA8
:1000AE00F0EE8BF0A42CFCE435F0F8EF8AF0A42CE3
:1000BE00E5F038FCE433CB8DF0A42CFCE5F03BF8F6
:1000CE00EE8AF0A42CFCE5F038F8E433CF89F0A4E6
:1000DE002CFCE5F038CF3400CE89F0A42FFFE5F0EC
:1000EE003EFEE433C98DF0A42EFEE5F039CD8AF044
:1000FE00A42FFFE5F03EFEE43DFD33D0E0FB5007BC
:10010E000BBB000F0201D8EC2CFCEF33FFEE33FEDD
:06011E00ED33FD0201B00B
:1001240075F020800E75F010800575F0087D007E56
:10013400007F003392D530D5031202A0EC33401077
:10014400EF33FFEE33FEED33FDEC33FCD5F0ED225F
:0E015400E5F0247EA2D513CC92E7CDCEFF229B
:10016200EDD2E7CD33EC3392D524814006E4FFFE95
:10017200FDFC22FCE4CFCECDCC24E0501174FF80F4
:10018200EDC3CC13CCCD13CDCE13CECF13CF047091
:07019200F030D5DE0202A0EF
:10019900E9D2E7C933E833F892D5EDD2E7CD33ECAC
:0701A90033FC5002B2D52225
:1001B000EC30E7100FBF000C0EBE00080DBD0004B0
:1001C0000BEB6014A2D5EB13FCED92E7FD2274FF5C
:1001D000FCFDFEFF22E480F8A2D574FF13FC7D80B5
:0301E000E480EFC9
:03000000020915DD
:0C091500787FE4F6D8FD758144020615D9
:1001E300BB010689828A83E0225002E722BBFE021A
:0901F300E32289828A83E493224D
:1001FC00BB010CE58229F582E5833AF583E02250B8
:10020C0006E92582F8E622BBFE06E92582F8E22201
:0D021C00E58229F582E5833AF583E493221B
:10022900F8BB010DE58229F582E5833AF583E8F00B
:10023900225006E92582C8F622BBFE05E92582C8B7
:02024900F2229F
:10024B00BC000BBE0029EF8DF084FFADF022E4CC97
:10025B00F875F008EF2FFFEE33FEEC33FCEE9DEC60
:10026B00984005FCEE9DFE0FD5F0E9E4CEFD22EDA6
:10027B00F8F5F0EE8420D21CFEADF075F008EF2FF0
:10028B00FFED33FD4007985006D5F0F222C398FDE1
:05029B000FD5F0EA227E
:0E02A000C3E49FFFE49EFEE49DFDE49CFC226F
:00000001FF
