:0F07EA007DCD7C01ED1D70011C144C70F7DFF10B
:0107F90022DD
:0B097600E4FEEEC39F50040E0E80F75D
:010981002253
:03000300020006F2
:030006000541327F
:0300130002000EDA
:03000E0005433275
:03000B00020016DA
:03001600053D3273
:03001B000207FADF
:0307FA00053F3286
:1007B600A2AF9204C2AFC2A5D2A4D2A7E4FF80180A
:1007C6007590FFC2A7E4FF120976D2A7E4FF1209CB
:1007D60076E59030E7077F0A12097680E3C2A7A282
:0307E6000492AFCB
:0107E90022ED
:02088A008F11CC
:10088C001207B6A2AF9203C2AFC2A5C2A4C2A7857B
:10089C001190D2A7E4FF120976C2A7A20392AF7FF0
:0408AC000A020976BD
:02085F008F11F7
:100861001207B6A2AF9203C2AFD2A5C2A4C2A78596
:100871001190E4FF120976D2A7E4FF120976C2A70C
:09088100A20392AF7F0A0209767E
:1008D6001207B6A2AF9205C2AFC2A5D2A4D2A7751F
:1008E60090FFE4FF120976AF90C2A7C2A4A20592B8
:0108F600AF52
:0108F70022DE
:1008F8001207B6A2AF9206C2AFD2A5D2A4D2A775EC
:0E09080090FF0000AF90C2A7C2A4A20692AF5B
:0109160022BE
:0A098E007F1412088A7F32020976F6
:0A0998007F1012088A7F32020976F0
:060800008B128A1389141B
:10080600EF33333354F82440FF12088AE4F515AB6E
:1008160012AA13A9148515827583001201FCFF1212
:0B082600085F0515E515C3940840E4C9
:0108310022A4
:1009310053073F530501ED6003430740EF4480FF38
:0809410012088A7F32020976D8
:05094900FFAB82AD0DC3
:0A094E008B10120931AF1002085F90
:1008B0008B1A8A1B891C120931AB1AAA1BA91C129C
:1008C00001E3FF601012085F7401251CF51CE4357C
:0608D0001BF51B80E42271
:1006BA008F168D178B18120931E51854F0700EE554
:1006CA001954F070047F30800C7F208008E518C42C
:1006DA00540F2430FF12085FE51604FFAD17120904
:1006EA0031E518540F700EE519540F70047F3080ED
:1006FA000B7F208007E518540F2430FF12085F2271
:0404BD008F0C8D0D06
:1004C1007C277D10AF03AE0212024BEF2430FFE414
:1004D1003E8F82F583AE02AF037C277D1012024B63
:1004E1008C0E8D0FAB82AD0DAF0C12094EAE0EAF5F
:1004F1000F7C037DE812024BEF2430F582E43EF5D8
:1005010083AE0EAF0F7C037DE812024B8C0E8D0F74
:10051100E50C04120949AE0EAF0F7C007D64120296
:100521004BEF2430F582E43EF583AE0EAF0F7C0035
:100531007D6412024B8C0E8D0FE50C2402120949C9
:10054100AE0EAF0F7C007D0A12024BEF2430F58214
:10055100E43EF583AE0EAF0F7C007D0A12024BED37
:100561002430F50FE43CF50EE50C2403120949E5AE
:0B0571000C2404FFAB0FAD0D02094E7F
:100832007F321207EA7F3812088A7F641209767FB4
:100842000C12088A7F641209767F0112088A7F0AD5
:0D0852001207EA7F0612088A7F6402097609
:10066300C2B57FC81207EA7FC81207EA7FC812071C
:10067300EA7FC81207EA7FC81207EAB2B57FC81239
:1006830007EA7FC81207EA7FC81207EA7FC8120782
:10069300EA7FC81207EAB2B57FC81207EA12060951
:1006A300E53A14600804700A1203BA80F31202AE2A
:0706B30080EE12091780E937
:10077E00E4F58EF597F5C1F587F593F594F591F5BA
:10078E0092F595F596F5B1F5B2F5A8F5887D01FFD0
:10079E001207457D017F011207457D03E4FF120517
:0807AE007C7D037F0102057C44
:10074500A2AF9204C2AFEF7016C2A8C289ED7006BF
:10075500D288D2A8801EED64017019C2888015BFA9
:100765000112C2AAC28BED7006D28AD28B8005BD5A
:080775000102C28AA20492AF46
:01077D002259
:10057C00A2AF9204C2AFEF703EC28CC2A9C28DED85
:10058C007011E58954F02408F589E4F58AF58CD2CC
:10059C008C8065BD020F5389F0758A58758C9ED27C
:1005AC00A9D28C8053BD010D5389F0758A78758C56
:1005BC00ECD2A9D28C8041EF64017040C28EC2ABE8
:1005CC00C28FED7011E589540F2480F589E4F58B09
:1005DC00F58DD28E8022BD020F53890F758B587505
:1005EC008D9ED2ABD28E8010BD010D53890F758BB1
:0C05FC0078758DECD2ABD28EA20492AFC9
:0106080022CF
:10070A001201E3FFFE9000011201FCFDEED39D40B1
:10071A0009EE9DFE900001EF80179000011201FC86
:10072A00FFEEC39F5010EFF4042EFE1201E3900077
:0A073A00011202298002E4FEAF065E
:010744002292
:1006090012077E120832E4F541F542F543F544F547
:100619003DF53EF53FF540C200C201F521F522F551
:1006290023F524F525F526F527F528F529F52AF5E5
:100639002BF52CF52DF52EF52FF530F534F535F58F
:100649003BF53CF53AF531F532F536F537F538F540
:0A06590039C202C2B7C2B4C2AF2218
:0F0958007F14120976D2B77F14120976C2B72224
:0F0967007F14120976D2B47F14120976C2B4221B
:1003BA00A2AF9203D2AFE53160021531E531700E7A
:1003CA00FDFF120745E4FDFF12057C120958E532CC
:1003DA0060021532E5327010FD7F01120745E4FD17
:1003EA007F0112057C1209677F321207EA7D03E456
:1003FA00FF12057C7D037F0112057CE531704DFB00
:10040A007A00794112070A8F08E508B40126852582
:10041A0027852628852325852426852123852224A8
:10042A00AF8CEFFEAD8A7C00E42DF522EC3EF5217F
:10043A00D2008018AF087E00E5372508CFEE3536A2
:10044A00CF240AF537E43FF536E4F531E532704D4D
:10045A00FB7A00794312070A8F08E508B40126855A
:10046A002D2F852E30852B2D852C2E85292B852AFF
:10047A002CAF8DEFFEAD8B7C00E42DF52AEC3EF51A
:10048A0029D2018018AF087E00E5392508CFEE355C
:10049A0038CF240AF539E43FF538E4F5327D01E432
:1004AA00FF1207457D017F01120745A20392AF752E
:0204BA003A0105
:0104BC00221D
:1002AE00E4F508F509F50AF50B7D01FF12057C7BD7
:1002BE00007A00793D12070A7508008F09E50925B5
:1002CE000BF50BE508350AF50AC3E50B9419E50A9B
:1002DE00940040DB7D03E4FF12057C0535E53570A7
:1002EE00020534E53554037013053CE53C700205F8
:1002FE003BAB3CAA3B7D017F131204BD30003CACEE
:10030E0021AD22E41201297B7B7A1479AE783E125C
:10031E00001E1201628E088F09852108852209AB05
:10032E0009AA08E4FDFF1204BD7B6DE4FD7F0512F2
:10033E00094E7B6DE4FD7F0612094E30013DAC295E
:10034E00AD2AE41201297B7B7A1479AE783E120035
:10035E001E1201628E088F09852908852A09AB09AC
:10036E00AA087D01E4FF1204BD7B6D7D017F05129D
:10037E00094E7B6D7D017F0612094EE4F50AF50BE1
:10038E00E531700B200008050BE50B7002050AE540
:10039E0032700B200108050BE50B7002050AE50B08
:0B03AE00450A6004753A0222E4F53AAB
:0103B9002221
:10091700AB37AA36E4FD7F0A1204BDAB39AA387D8E
:0A092700017F0A1204BDE4F53A2234
:10001E00EC4D6011E8497017ED33EC3304600DE4DC
:10002E00FCFFFEFD22E933E8330470F80201CE1224
:10003E00019958046009E4CC248150062850090225
:10004E0001D82840030201D5C0E0EB4A7044B980C4
:10005E0006D0E0FB0201C4EF4E701CBD8008EBFF22
:10006E00EAFEE9FD80EBE98DF0A4FEE5F002010762
:10007E00E9CDF9EAFEEBFFEF89F0A4FCE5F0CE89BD
:10008E00F0A42EFFE435F0CD89F0A42DFEE435F07A
:10009E008067EF4E7005BD80D780C3EF8BF0A4ACA8
:1000AE00F0EE8BF0A42CFCE435F0F8EF8AF0A42CE3
:1000BE00E5F038FCE433CB8DF0A42CFCE5F03BF8F6
:1000CE00EE8AF0A42CFCE5F038F8E433CF89F0A4E6
:1000DE002CFCE5F038CF3400CE89F0A42FFFE5F0EC
:1000EE003EFEE433C98DF0A42EFEE5F039CD8AF044
:1000FE00A42FFFE5F03EFEE43DFD33D0E0FB5007BC
:10010E000BBB000F0201D8EC2CFCEF33FFEE33FEDD
:06011E00ED33FD0201B00B
:1001240075F020800E75F010800575F0087D007E56
:10013400007F003392D530D5031202A0EC33401077
:10014400EF33FFEE33FEED33FDEC33FCD5F0ED225F
:0E015400E5F0247EA2D513CC92E7CDCEFF229B
:10016200EDD2E7CD33EC3392D524814006E4FFFE95
:10017200FDFC22FCE4CFCECDCC24E0501174FF80F4
:10018200EDC3CC13CCCD13CDCE13CECF13CF047091
:07019200F030D5DE0202A0EF
:10019900E9D2E7C933E833F892D5EDD2E7CD33ECAC
:0701A90033FC5002B2D52225
:1001B000EC30E7100FBF000C0EBE00080DBD0004B0
:1001C0000BEB6014A2D5EB13FCED92E7FD2274FF5C
:1001D000FCFDFEFF22E480F8A2D574FF13FC7D80B5
:0301E000E480EFC9
:0300000002098270
:0C098200787FE4F6D8FD7581440206631E
:1001E300BB010689828A83E0225002E722BBFE021A
:0901F300E32289828A83E493224D
:1001FC00BB010CE58229F582E5833AF583E02250B8
:10020C0006E92582F8E622BBFE06E92582F8E22201
:0D021C00E58229F582E5833AF583E493221B
:10022900F8BB010DE58229F582E5833AF583E8F00B
:10023900225006E92582C8F622BBFE05E92582C8B7
:02024900F2229F
:10024B00BC000BBE0029EF8DF084FFADF022E4CC97
:10025B00F875F008EF2FFFEE33FEEC33FCEE9DEC60
:10026B00984005FCEE9DFE0FD5F0E9E4CEFD22EDA6
:10027B00F8F5F0EE8420D21CFEADF075F008EF2FF0
:10028B00FFED33FD4007985006D5F0F222C398FDE1
:05029B000FD5F0EA227E
:0E02A000C3E49FFFE49EFEE49DFDE49CFC226F
:00000001FF
