:0F07EE007DCD7C01ED1D70011C144C70F7DFF107
:0107FD0022D9
:0B094400E4FEEEC39F50040E0E80F78F
:01094F002285
:03000300020006F2
:030006000541327F
:0300130002000EDA
:03000E0005433275
:03000B00020016DA
:03001600053D3273
:03001B0002097067
:03097000053F320E
:10078800A2AF9204C2AFC2A5D2A4D2A7E4FF801838
:100798007590FFC2A7E4FF120944D2A7E4FF12092B
:1007A80044E59030E7077F0A12094480E3C2A7A214
:0307B8000492AFF9
:0107BB00221B
:020858008F11FE
:10085A00120788A2AF9203C2AFC2A5C2A4C2A785DB
:10086A001190D2A7E4FF120944C2A7A20392AF7F54
:04087A000A02094421
:02082D008F1129
:10082F00120788A2AF9203C2AFD2A5C2A4C2A785F6
:10083F001190E4FF120944D2A7E4FF120944C2A7A2
:09084F00A20392AF7F0A020944E2
:1008A400120788A2AF9205C2AFC2A5D2A4D2A7757F
:1008B40090FFE4FF120944AF90C2A7C2A4A205921C
:0108C400AF84
:0108C5002210
:1008C600120788A2AF9206C2AFD2A5D2A4D2A7754C
:0E08D60090FF0000AF90C2A7C2A4A20692AF8E
:0108E40022F1
:0A095C007F141208587F320209448C
:0A0966007F101208587F3202094486
:0607BC008B128A13891460
:1007C200EF33333354F82440FF120858E4F515ABE5
:1007D20012AA13A9148515827583001201FCFF1257
:0B07E200082D0515E515C3940840E440
:0107ED0022E9
:1008FF0053073F530501ED6003430740EF4480FF6B
:08090F001208587F320209446E
:05091700FFAB82AD0DF5
:0A091C008B101208FFAF1002082D27
:10087E008B1A8A1B891C1208FFAB1AAA1BA91C1201
:10088E0001E3FF601012082D7401251CF51CE435E0
:06089E001BF51B80E422A3
:10068C008F168D178B181208FFE51854F0700EE5B5
:10069C001954F070047F30800C7F208008E518C45A
:1006AC00540F2430FF12082DE51604FFAD17120865
:1006BC00FFE518540F700EE519540F70047F30804D
:1006CC000B7F208007E518540F2430FF12082D22D1
:04048F008F0C8D0D34
:100493007C277D10AF03AE0212024BEF2430FFE442
:1004A3003E8F82F583AE02AF037C277D1012024B91
:1004B3008C0E8D0FAB82AD0DAF0C12091CAE0EAFBF
:1004C3000F7C037DE812024BEF2430F582E43EF506
:1004D30083AE0EAF0F7C037DE812024B8C0E8D0FA3
:1004E300E50C04120917AE0EAF0F7C007D641202F7
:1004F3004BEF2430F582E43EF583AE0EAF0F7C0064
:100503007D6412024B8C0E8D0FE50C240212091729
:10051300AE0EAF0F7C007D0A12024BEF2430F58242
:10052300E43EF583AE0EAF0F7C007D0A12024BED65
:100533002430F50FE43CF50EE50C2403120917E50E
:0B0543000C2404FFAB0FAD0D02091CDF
:100800007F321207EE7F381208587F641209447F46
:100810000C1208587F641209447F011208587F0A9D
:0D0820001207EE7F061208587F640209449B
:10063500C2B57FC81207EE7FC81207EE7FC8120742
:10064500EE7FC81207EE7FC81207EEB2B57FC8125B
:1006550007EE7FC81207EE7FC81207EE7FC81207A4
:10066500EE7FC81207EEB2B57FC81207EE1205DBA2
:10067500E53A14600804700A1203BA80F31202AE58
:0706850080EE1208E580E998
:10075000E4F58EF597F5C1F587F593F594F591F5E8
:1007600092F595F596F5B1F5B2F5A8F5887D01FFFE
:100770001207177D017F011207177D03E4FF1205A1
:080780004E7D037F0102054ECE
:10071700A2AF9204C2AFEF7016C2A8C289ED7006ED
:10072700D288D2A8801EED64017019C2888015BFD7
:100737000112C2AAC28BED7006D28AD28B8005BD88
:080747000102C28AA20492AF74
:01074F002287
:10054E00A2AF9204C2AFEF703EC28CC2A9C28DEDB3
:10055E007011E58954F02408F589E4F58AF58CD2FA
:10056E008C8065BD020F5389F0758A58758C9ED2AA
:10057E00A9D28C8053BD010D5389F0758A78758C84
:10058E00ECD2A9D28C8041EF64017040C28EC2AB16
:10059E00C28FED7011E589540F2480F589E4F58B37
:1005AE00F58DD28E8022BD020F53890F758B587533
:1005BE008D9ED2ABD28E8010BD010D53890F758BDF
:0C05CE0078758DECD2ABD28EA20492AFF7
:0105DA0022FE
:1006DC001201E3FFFE9000011201FCFDEED39D40E0
:1006EC0009EE9DFE900001EF80179000011201FCB5
:1006FC00FFEEC39F5010EFF4042EFE1201E39000A6
:0A070C00011202298002E4FEAF068C
:0107160022C0
:1005DB00120750120800E4F541F542F543F544F5D6
:1005EB003DF53EF53FF540C200C201F521F522F580
:1005FB0023F524F525F526F527F528F529F52AF514
:10060B002BF52CF52DF52EF52FF530F534F535F5BD
:10061B003BF53CF53AF531F532F536F537F538F56E
:0A062B0039C202C2B7C2B4C2AF2246
:0F0926007F14120944D2B77F14120944C2B722BA
:0F0935007F14120944D2B47F14120944C2B422B1
:1003BA00A2AF9203C2AFE53160021531E531700E8A
:1003CA00FDFF120717E4FDFF12054E120926E5325A
:1003DA0060021532E5327010FD7F01120717E4FD45
:1003EA007F0112054E1209357F321207EE7D03E4B2
:1003FA00FF12054E7D037F0112054EE5317036303E
:10040A008928C289852527852628852325852426A6
:10041A00852123852224AF8CEFFEAD8A7C00E42D52
:10042A00F522EC3EF521D200800B0537E537700244
:10043A000536E4F531E5327036308B28C28B852DCE
:10044A002F852E30852B2D852C2E85292B852A2C20
:10045A00AF8DEFFEAD8B7C00E42DF52AEC3EF5293D
:10046A00D201800B0539E53970020538E4F5327D91
:10047A0001E4FF1207177D017F01120717A20392F9
:04048A00AF753A010F
:01048E00224B
:1002AE00E4F508F509F50AF50B7D01FF12054E7B05
:1002BE00007A00793D1206DC7508008F09E50925E4
:1002CE000BF50BE508350AF50AC3E50B9419E50A9B
:1002DE00940040DB7D03E4FF12054E0535E53570D5
:1002EE00020534E53554037013053CE53C700205F8
:1002FE003BAB3CAA3B7D017F1312048F30003CAC1C
:10030E0021AD22E41201297B7B7A1479AE783E125C
:10031E00001E1201628E088F09852108852209AB05
:10032E0009AA08E4FDFF12048F7B6DE4FD7F051220
:10033E00091C7B6DE4FD7F0612091C30013DAC29C2
:10034E00AD2AE41201297B7B7A1479AE783E120035
:10035E001E1201628E088F09852908852A09AB09AC
:10036E00AA087D01E4FF12048F7B6D7D017F0512CB
:10037E00091C7B6D7D017F0612091CE4F50AF50B45
:10038E00E531700B200008050BE50B7002050AE540
:10039E0032700B200108050BE50B7002050AE50B08
:0B03AE00450A6004753A0222E4F53AAB
:0103B9002221
:1008E500AB37AA36E4FD7F0A12048FAB39AA387DEF
:0A08F500017F0A12048FE4F53A2295
:10001E00EC4D6011E8497017ED33EC3304600DE4DC
:10002E00FCFFFEFD22E933E8330470F80201CE1224
:10003E00019958046009E4CC248150062850090225
:10004E0001D82840030201D5C0E0EB4A7044B980C4
:10005E0006D0E0FB0201C4EF4E701CBD8008EBFF22
:10006E00EAFEE9FD80EBE98DF0A4FEE5F002010762
:10007E00E9CDF9EAFEEBFFEF89F0A4FCE5F0CE89BD
:10008E00F0A42EFFE435F0CD89F0A42DFEE435F07A
:10009E008067EF4E7005BD80D780C3EF8BF0A4ACA8
:1000AE00F0EE8BF0A42CFCE435F0F8EF8AF0A42CE3
:1000BE00E5F038FCE433CB8DF0A42CFCE5F03BF8F6
:1000CE00EE8AF0A42CFCE5F038F8E433CF89F0A4E6
:1000DE002CFCE5F038CF3400CE89F0A42FFFE5F0EC
:1000EE003EFEE433C98DF0A42EFEE5F039CD8AF044
:1000FE00A42FFFE5F03EFEE43DFD33D0E0FB5007BC
:10010E000BBB000F0201D8EC2CFCEF33FFEE33FEDD
:06011E00ED33FD0201B00B
:1001240075F020800E75F010800575F0087D007E56
:10013400007F003392D530D5031202A0EC33401077
:10014400EF33FFEE33FEED33FDEC33FCD5F0ED225F
:0E015400E5F0247EA2D513CC92E7CDCEFF229B
:10016200EDD2E7CD33EC3392D524814006E4FFFE95
:10017200FDFC22FCE4CFCECDCC24E0501174FF80F4
:10018200EDC3CC13CCCD13CDCE13CECF13CF047091
:07019200F030D5DE0202A0EF
:10019900E9D2E7C933E833F892D5EDD2E7CD33ECAC
:0701A90033FC5002B2D52225
:1001B000EC30E7100FBF000C0EBE00080DBD0004B0
:1001C0000BEB6014A2D5EB13FCED92E7FD2274FF5C
:1001D000FCFDFEFF22E480F8A2D574FF13FC7D80B5
:0301E000E480EFC9
:03000000020950A2
:0C095000787FE4F6D8FD7581440206357E
:1001E300BB010689828A83E0225002E722BBFE021A
:0901F300E32289828A83E493224D
:1001FC00BB010CE58229F582E5833AF583E02250B8
:10020C0006E92582F8E622BBFE06E92582F8E22201
:0D021C00E58229F582E5833AF583E493221B
:10022900F8BB010DE58229F582E5833AF583E8F00B
:10023900225006E92582C8F622BBFE05E92582C8B7
:02024900F2229F
:10024B00BC000BBE0029EF8DF084FFADF022E4CC97
:10025B00F875F008EF2FFFEE33FEEC33FCEE9DEC60
:10026B00984005FCEE9DFE0FD5F0E9E4CEFD22EDA6
:10027B00F8F5F0EE8420D21CFEADF075F008EF2FF0
:10028B00FFED33FD4007985006D5F0F222C398FDE1
:05029B000FD5F0EA227E
:0E02A000C3E49FFFE49EFEE49DFDE49CFC226F
:00000001FF
