:0F07EB007DCD7C01ED1D70011C144C70F7DFF10A
:0107FA0022DC
:0B0A2700E4FEEEC39F50040E0E80F7AB
:010A320022A1
:03000300020006F2
:030006000541327F
:0300130002000EDA
:03000E0005433275
:03000B00020016DA
:03001600053D3273
:03001B000207FBDE
:0307FB00053F3285
:10087100A2AF9205C2AFC2A5D2A4D2A7E4FF80184D
:100881007590FFC2A7E4FF120A27D2A7E4FF120A5C
:1008910027E59030E7077F0A120A2780E3C2A7A263
:0308A1000592AF0E
:0108A4002231
:02092F008F1225
:10093100120871A2AF9204C2AFC2A5C2A4C2A78518
:100941001290D2A7E4FF120A27C2A7A20492AF7F96
:040951000A020A2765
:020904008F1250
:10090600120871A2AF9204C2AFD2A5C2A4C2A78533
:100916001290E4FF120A27D2A7E4FF120A27C2A701
:09092600A20492AF7F0A020A2725
:1009A100120871A2AF9206C2AFC2A5D2A4D2A77596
:1009B10090FFE4FF120A27AF90C2A7C2A4A2069239
:0109C100AF86
:0109C2002212
:1009C300120871A2AF9207C2AFD2A5D2A4D2A77563
:0E09D30090FF0000AF90C2A7C2A4A20792AF8F
:0109E10022F3
:0A0A3F007F1412092F7F32020A27EC
:0A0A49007F1012092F7F32020A27E6
:0608A5008B138A14891573
:1008AB00EF33333354F82440FF12092FE4F516AB22
:1008BB0013AA14A9158516827583001201FCFF1269
:0B08CB0009040516E516C3940840E47C
:0108D60022FF
:1009E20053073F530501ED6003430740EF4480FF87
:0809F20012092F7F32020A27CF
:0509FA00FFAB82AD0E11
:0A09FF008B111209E2AF1102090486
:100955008B1B8A1C891D1209E2AB1BAA1CA91D123F
:1009650001E3FF60101209047401251DF51DE4352E
:060975001CF51C80E422C9
:100760008F178D188B191209E2E51954F0700EE5F8
:100770001A54F070047F30800C7F208008E519C483
:10078000540F2430FF120904E51704FFAD181209B5
:10079000E2E519540F700EE51A540F70047F308093
:1007A0000B7F208007E519540F2430FF1209042223
:040563008F0D8D0E5D
:100567007C277D10AF03AE0212024BEF2430FFE46D
:100577003E8F82F583AE02AF037C277D1012024BBC
:100587008C0F8D10AB82AD0EAF0D1209FFAE0FAF02
:10059700107C037DE812024BEF2430F582E43EF530
:1005A70083AE0FAF107C037DE812024B8C0F8D10CA
:1005B700E50D041209FAAE0FAF107C007D6412023C
:1005C7004BEF2430F582E43EF583AE0FAF107C008D
:1005D7007D6412024B8C0F8D10E50D24021209FA6F
:1005E700AE0FAF107C007D0A12024BEF2430F5826C
:1005F700E43EF583AE0FAF107C007D0A12024BED8F
:100607002430F510E43CF50FE50D24031209FAE553
:0B0617000D2404FFAB10AD0E0209FF24
:1008D7007F321207EB7F3812092F7F64120A277FB6
:1008E7000C12092F7F64120A277F0112092F7F0A32
:0D08F7001207EB7F0612092F7F64020A270B
:10070900C2B57FC81207EB7FC81207EB7FC8120773
:10071900EB7FC81207EB7FC81207EBB2B57FC8128F
:1007290007EB7FC81207EB7FC81207EB7FC81207D8
:10073900EB7FC81207EBB2B57FC81207EB1206AF01
:10074900E53A14600804700A12044680F31202AEF6
:0707590080EE12097B80E92C
:10083900E4F58EF597F5C1F587F593F594F591F5FE
:1008490092F595F596F5B1F5B2F5A8F5887D01FF14
:100859001208007D017F011208007D03E4FF1206E2
:08086900227D037F010206223B
:10080000A2AF9204C2AFEF7016C2A8C289ED700603
:10081000D288D2A8801EED64017019C2888015BFED
:100820000112C2AAC28BED7006D28AD2AA8005BD7F
:080830000102C28AA20492AF8A
:01083800229D
:10062200A2AF9204C2AFEF703EC28CC2A9C28DEDDE
:100632007011E58954F02408F589E4F58AF58CD225
:100642008C8065BD020F5389F0758A58758C9ED2D5
:10065200A9D28C8053BD010D5389F0758A78758CAF
:10066200ECD2A9D28C8041EF64017040C28EC2AB41
:10067200C28FED7011E589540F2480F589E4F58B62
:10068200F58DD28E8022BD020F53890F758B58755E
:100692008D9ED2ABD28E8010BD010D53890F758B0A
:0C06A20078758DECD2ABD28EA20492AF22
:0106AE002229
:1007B0001201E3FFFE9000011201FCFDEED39D400B
:1007C00009EE9DFE900001EF80179000011201FCE0
:1007D000FFEEC39F5010EFF4042EFE1201E39000D1
:0A07E000011202298002E4FEAF06B8
:0107EA0022EC
:1006AF001208391208D7E4F541F542F543F544F540
:1006BF003DF53EF53FF540C200C201F521F522F5AB
:1006CF0023F524F525F526F527F528F529F52AF53F
:1006DF002BF52CF52DF52EF52FF530F534F535F5E9
:1006EF003BF53CF53AF531F532F536F537F538F59A
:0A06FF0039C202C2B7C2B4C2AF2272
:0F0A09007F14120A27D2B77F14120A27C2B7220E
:0F0A18007F14120A27D2B47F14120A27C2B42205
:10044600E53A2430FBE4FD7F131209FFA2AF9203C5
:100456007D01E4FF1208007D017F01120800D2AF82
:10046600E53160021531E531700EFDFF120800E43A
:10047600FDFF120622120A09E53260021532E53244
:100486007010FD7F01120800E4FD7F0112062212A2
:100496000A187F321207EB7D03E4FF1206227D0362
:1004A6007F01120622E531704DFB7A007941120771
:1004B600B08F08E508B401268525278526288523DB
:1004C60025852426852123852224AF8CEFFEAD8A3F
:1004D6007C00E42DF522EC3EF521D2008018AF0811
:1004E6007E00E5372508CFEE3536CF240AF537E40A
:1004F6003FF536E4F531E532704DFB7A007943126B
:1005060007B08F08E508B40126852D2F852E308586
:100516002B2D852C2E85292B852A2CAF8DEFFEAD14
:100526008B7C00E42DF52AEC3EF529D2018018AF2C
:10053600087E00E5392508CFEE3538CF240AF5398F
:10054600E43FF538E4F5327D01E4FF1208007D0151
:0C0556007F01120800A20392AF753A0169
:010562002276
:1002AE00A2AF9203E4F508F509F50AF50BF50CE596
:1002BE003A2430FBE4FD7F131209FFD2AF7D01E437
:1002CE00FF120622050CE50C75F06484E5F075F05E
:1002DE000A842430FBE4FD7F161209FFE50C75F04D
:1002EE006484E5F075F00A84E5F02430FBE4FD7FCC
:1002FE00171209FFAE0AAF0B7C007D6412024B7E13
:10030E00007F0ACFCDCFCECCCE12024BEF2430FBE6
:10031E00E4FD7F101209FFAE0AAF0B7C007D641264
:10032E00024B7E007F0ACFCDCFCECCCE12024BED4C
:10033E002430FBE4FD7F111209FF7B007A00793D2A
:10034E001207B07508008F09E509250BF50BE508B6
:10035E00350AF50AC3E50B9432E50A9400500241C2
:10036E00D27D03E4FF120622A20392AF740225355A
:10037E00F535E43534F534E53554037013053CE5B5
:10038E003C7002053BAB3CAA3B7D017F131205631B
:10039E00300038C200AC21AD22E41201297B7B7AF9
:1003AE001479AE783E12001E1201628E088F09ABD0
:1003BE0009AA08E4FDFF1205637B6DE4FD7F0512BB
:1003CE0009FF7B6DE4FD7F061209FF300139C20182
:1003DE00AC29AD2AE41201297B7B7A1479AE783EE2
:1003EE0012001E1201628E088F09AB09AA087D0148
:1003FE00E4FF1205637B6D7D017F051209FF7B6DA6
:10040E007D017F061209FFE4F50AF50BE531700B4D
:10041E00200008050BE50B7002050AE532700B2073
:10042E000108050BE50B7002050AE50B450A600491
:07043E00753A0222E4F53AD1
:010445002294
:10097B00E53A2430FBE4FD7F131209FFAB37AA36AF
:10098B00E4FD7F0A120563AB39AA387D017F0A1299
:06099B000563E4F53A22B9
:10001E00EC4D6011E8497017ED33EC3304600DE4DC
:10002E00FCFFFEFD22E933E8330470F80201CE1224
:10003E00019958046009E4CC248150062850090225
:10004E0001D82840030201D5C0E0EB4A7044B980C4
:10005E0006D0E0FB0201C4EF4E701CBD8008EBFF22
:10006E00EAFEE9FD80EBE98DF0A4FEE5F002010762
:10007E00E9CDF9EAFEEBFFEF89F0A4FCE5F0CE89BD
:10008E00F0A42EFFE435F0CD89F0A42DFEE435F07A
:10009E008067EF4E7005BD80D780C3EF8BF0A4ACA8
:1000AE00F0EE8BF0A42CFCE435F0F8EF8AF0A42CE3
:1000BE00E5F038FCE433CB8DF0A42CFCE5F03BF8F6
:1000CE00EE8AF0A42CFCE5F038F8E433CF89F0A4E6
:1000DE002CFCE5F038CF3400CE89F0A42FFFE5F0EC
:1000EE003EFEE433C98DF0A42EFEE5F039CD8AF044
:1000FE00A42FFFE5F03EFEE43DFD33D0E0FB5007BC
:10010E000BBB000F0201D8EC2CFCEF33FFEE33FEDD
:06011E00ED33FD0201B00B
:1001240075F020800E75F010800575F0087D007E56
:10013400007F003392D530D5031202A0EC33401077
:10014400EF33FFEE33FEED33FDEC33FCD5F0ED225F
:0E015400E5F0247EA2D513CC92E7CDCEFF229B
:10016200EDD2E7CD33EC3392D524814006E4FFFE95
:10017200FDFC22FCE4CFCECDCC24E0501174FF80F4
:10018200EDC3CC13CCCD13CDCE13CECF13CF047091
:07019200F030D5DE0202A0EF
:10019900E9D2E7C933E833F892D5EDD2E7CD33ECAC
:0701A90033FC5002B2D52225
:1001B000EC30E7100FBF000C0EBE00080DBD0004B0
:1001C0000BEB6014A2D5EB13FCED92E7FD2274FF5C
:1001D000FCFDFEFF22E480F8A2D574FF13FC7D80B5
:0301E000E480EFC9
:03000000020A33BE
:0C0A3300787FE4F6D8FD758144020709C5
:1001E300BB010689828A83E0225002E722BBFE021A
:0901F300E32289828A83E493224D
:1001FC00BB010CE58229F582E5833AF583E02250B8
:10020C0006E92582F8E622BBFE06E92582F8E22201
:0D021C00E58229F582E5833AF583E493221B
:10022900F8BB010DE58229F582E5833AF583E8F00B
:10023900225006E92582C8F622BBFE05E92582C8B7
:02024900F2229F
:10024B00BC000BBE0029EF8DF084FFADF022E4CC97
:10025B00F875F008EF2FFFEE33FEEC33FCEE9DEC60
:10026B00984005FCEE9DFE0FD5F0E9E4CEFD22EDA6
:10027B00F8F5F0EE8420D21CFEADF075F008EF2FF0
:10028B00FFED33FD4007985006D5F0F222C398FDE1
:05029B000FD5F0EA227E
:0E02A000C3E49FFFE49EFEE49DFDE49CFC226F
:00000001FF
