:0F08DB007DCD7C01ED1D70011C144C70F7DFF119
:0108EA0022EB
:0B08F800E4FEEEC39F50040E0E80F7DC
:0109030022D1
:03000300020006F2
:03000600053F3281
:0300130002000EDA
:03000E0005413277
:03000B00020016DA
:03001600053B3275
:03001B000207FDDC
:0307FD00053D3285
:10074700A2AF9201C2AFC2A5D2A4D2A7E4FF80187C
:100757007590FFC2A7E4FF1208F8D2A7E4FF1208BA
:10076700F8E59030E7077F0A1208F880E3C2A7A2EE
:030777000192AF3D
:01077A00225C
:020858008F0D02
:10085A00120747A2AF9200C2AFC2A5C2A4C2A7851F
:10086A000D90D2A7E4FF1208F8C2A7A20092AF7FA8
:04087A000A0208F86E
:02082D008F0D2D
:10082F00120747A2AF9200C2AFD2A5C2A4C2A7853A
:10083F000D90E4FF1208F8D2A7E4FF1208F8C2A740
:09084F00A20092AF7F0A0208F832
:1007DB00120747A2AF9202C2AFC2A5D2A4D2A7758D
:1007EB0090FFE4FF1208F8AF90C2A7C2A4A2029236
:0107FB00AF4E
:0107FC0022DA
:1008A400120747A2AF9203C2AFD2A5D2A4D2A775B2
:0E08B40090FF0000AF90C2A7C2A4A20392AFB3
:0108C2002213
:0A0910007F141208587F320208F825
:0A091A007F101208587F320208F81F
:06077B008B0E8A0F8910AD
:10078100EF33333354F82440FF120858E4F511AB2A
:100791000EAA0FA910851182758300120425FF127C
:0B07A100082D0511E511C3940840E489
:0107AC00222A
:1008C30053073F530501ED6003430740EF4480FFA7
:0808D3001208587F320208F8F8
:0A0924008B0C1208C3AF0C02082D63
:10087E008B098A0A890B1208C3AB09AA0AA90B12A3
:10088E00040CFF601012082D7401250BF50BE435D6
:06089E000AF50A80E422C5
:100636008F128D138B141208C3E51454F0700EE557
:100646001554F070047F30800C7F208008E514C4B8
:10065600540F2430FF12082DE51204FFAD131208C3
:10066600C3E514540F700EE515540F70047F3080E7
:100676000B7F208007E514540F2430FF12082D222B
:100800007F321208DB7F381208587F641208F87FA5
:100810000C1208587F641208F87F011208587F0AEA
:0D0820001208DB7F061208587F640208F8FA
:10056600C2B57FC81208DB7FC81208DB7FC8120835
:10057600DB7FC81208DB7FC81208DBB2B57FC81262
:1005860008DB7FC81208DB7FC81208DB7FC81208A9
:10059600DB7FC81208DBB2B57FC81208DB120686FD
:1005A6007B69E4FD7F0A120924E53414600C1460AB
:1005B6000E2402700F12092E80EF1205CF80EA1268
:0905C600001E80E512033680E0FE
:10070F00E4F58EF597F5C1F587F593F594F591F529
:10071F0092F595F596F5B1F5B2F5A8F5887D01FF3F
:10072F001207AD7D017F011207AD7D03E4FF1204B7
:08073F00DB7D037F010204DBF6
:1007AD00A2AF9200C2AFEF7012C2A8C289C288ED8B
:1007BD007004D2A88013BD0110800EBF010BC2AA18
:0D07CD00C28BC28AED7002D2AAA20092AFC8
:0107DA0022FC
:1004DB00A2AF9200C2AFEF703DC28CC2A9C28DED2C
:1004EB00700FE58954F02408F589E4F58AF58C80C2
:1004FB0021BD020B5389F0758A58758C9E8013BDF4
:10050B00010B5389F0758A78758CEC8005BD03025D
:10051B008040C28D8040EF6401703FC28EC2ABC27F
:10052B008FED700FE589540F2480F589E4F58BF579
:10053B008D8021BD020B53890F758B58758D9E8055
:10054B0013BD010B53890F758B78758DEC8005BD31
:0A055B0003028002C28FA20092AFDB
:010565002273
:0D08EB0046534D204552524F52212121000D
:1006D40012040CFFFE900001120425FDEED39D4090
:1006E40009EE9DFE900001EF801790000112042591
:1006F400FFEEC39F5010EFF4042EFE12040C900082
:0A070400011204528002E4FEAF0669
:01070E0022C8
:1006860012070F120800E4F53FF540F541F542F573
:100696003BF53CF53DF53EF521F522F523F524F530
:1006A60025F526F527F528F529F52AF52BF52CF558
:1006B6002DF52EF52FF530F531F532F543F544F5E8
:0E06C60037F538F535F536C2B7C2B4D2AF22DB
:09092E00E4F543F544753401229F
:1005CF00E4F5087D01FF1207AD7D017F011207AD34
:1005DF00758980C28CC2A9C28DE4F58CF58AD28C44
:1005EF00C28EC2ABC28FF58DF58BD28EC2B47F1483
:1005FF001208F8D2B47F141208F8C2B47F3212086E
:10060F00DBC28CC28EAF8CEFFEAD8A7C00E42DF581
:10061F0024EC3EF523AF8DEFFEAD8BE42DF52CECE6
:06062F003EF52B753402BC
:0106350022A2
:10001E007D01E4FF1204DBD28CD2A97B007A007939
:10002E003B1206D47508008F09AE087C007D0A12BB
:10003E000474EF2544F544EE3543F543D3E544947B
:10004E00E8E543940340D4E4F543F5447D03FF1201
:10005E0004DB753700753804E4F521F522E53864C4
:10006E0004453760026132F537F5380536E53670EE
:10007E00020535AE35AF367C277D10120486EF248F
:10008E0030F509E43EF508AE35AF367C277D10120B
:10009E0004868C0A8D0B7B737D017F0A1209247BEB
:1000AE00657D017F0B1209247B637D017F0C120994
:1000BE00247B3A7D017F0D120924AB097D017F0E51
:1000CE00120924AE0AAF0B7C037DE8120486EF24DE
:1000DE0030F509E43EF508AE0AAF0B7C037DE8125D
:1000EE0004868C0A8D0BAB097D017F0F120924AE9D
:1000FE000AAF0B7C007D64120486EF2430F509E410
:10010E003EF508AE0AAF0B7C007D641204868C0AA5
:10011E008D0BAB097D017F10120924AE0AAF0B7C4B
:10012E00007D0A120486EF2430F509E43EF508AE90
:10013E000AAF0B7C007D0A120486ED2430F50BE429
:10014E003CF50AAB097D017F11120924AB0B7D0131
:10015E007F12120924E52425E0FFE52333AB07C304
:10016E0013FAEB137C037DE8FFAE02120486AA0697
:10017E00AB077C017D54120474AA06AB07AA23AB0D
:10018E00247C277D10AF03AE02120486EF2430F5D7
:10019E0009E43EF5087C277D10AF03AE02120486FB
:1001AE008C0A8D0BAB09E4FDFF120924AE0AAF0BCE
:1001BE007C037DE8120486EF2430F509E43EF50851
:1001CE00AE0AAF0B7C037DE81204868C0A8D0BAB56
:1001DE0009E4FD7F01120924AE0AAF0B7C007D6499
:1001EE00120486EF2430F509E43EF508AE0AAF0B93
:1001FE007C007D641204868C0A8D0BAB09E4FD7FB6
:10020E0002120924AE0AAF0B7C007D0A120486EF9F
:10021E002430F509E43EF508AE0AAF0B7C007D0AEA
:10022E00120486ED2430F50BE43CF50AAB09E4FD2F
:10023E007F03120924AB0BE4FD7F041209247B6DAE
:10024E00E4FD7F051209247B6DE4FD7F061209246F
:10025E00AA2BAB2C7C277D10AF03AE02120486EFC7
:10026E002430F509E43EF508AE02AF037C277D107D
:10027E001204868C0A8D0BAB097D01E4FF12092452
:10028E00AE0AAF0B7C037DE8120486EF2430F5092D
:10029E00E43EF508AE0AAF0B7C037DE81204868CB3
:1002AE000A8D0BAB097D017F01120924AE0AAF0B3B
:1002BE007C007D64120486EF2430F509E43EF508D7
:1002CE00AE0AAF0B7C007D641204868C0A8D0BABDC
:1002DE00097D017F02120924AE0AAF0B7C007D0A54
:1002EE00120486EF2430F509E43EF508AE0AAF0B92
:1002FE007C007D0A120486ED2430F50BE43CF50AF1
:10030E00AB097D017F03120924AB0B7D017F041223
:10031E0009247B6D7D017F051209247B6D7D017F94
:07032E0006120924E4F53476
:0103350022A5
:100336007B007A00793B1206D48F08EF75F00AA489
:10034600AEF02544F544EE3543F543D3E54494E851
:10035600E543940340DAE4F543F5447D03FF1204D4
:10036600DB753700753804E4F5087B20E4FDAF083B
:100376001209240508E508C3941040EEE4F5087B4D
:10038600207D01AF081209240508E508C394104032
:10039600EE7BFF7A0879EBE4FDFF12087E7B667D33
:1003A60001E4FF1209247B737D017F011209247B7E
:1003B6006D7D017F021209247B3A7D017F031209BC
:1003C60024E53475F064842430FB7D017F04120932
:1003D60024E53475F06484E5F075F00A842430FB76
:1003E6007D017F05120924E53475F00A84E5F024C1
:1003F60030FB7D017F061209247B647D017F071295
:050406000924853434D7
:01040B0022CE
:03000000020904EE
:0C090400787FE4F6D8FD7581440205669A
:10040C00BB010689828A83E0225002E722BBFE02EE
:09041C00E32289828A83E4932221
:10042500BB010CE58229F582E5833AF583E022508C
:1004350006E92582F8E622BBFE06E92582F8E222D6
:0D044500E58229F582E5833AF583E49322F0
:10045200F8BB010DE58229F582E5833AF583E8F0E0
:10046200225006E92582C8F622BBFE05E92582C88C
:02047200F22274
:10047400EF8DF0A4A8F0CF8CF0A428CE8DF0A42E9C
:02048400FE2256
:10048600BC000BBE0029EF8DF084FFADF022E4CC5A
:10049600F875F008EF2FFFEE33FEEC33FCEE9DEC23
:1004A600984005FCEE9DFE0FD5F0E9E4CEFD22ED69
:1004B600F8F5F0EE8420D21CFEADF075F008EF2FB3
:1004C600FFED33FD4007985006D5F0F222C398FDA4
:0504D6000FD5F0EA2241
:00000001FF
