:0F08FE007DCD7C01ED1D70011C144C70F7DFF1F6
:01090D0022C7
:0B091B00E4FEEEC39F50040E0E80F7B8
:0109260022AE
:03000300020006F2
:03000600053F3281
:0300130002000EDA
:03000E0005413277
:03000B00020016DA
:03001600053B3275
:03001B0002095A7D
:03095A00053D3226
:10076D00A2AF9201C2AFC2A5D2A4D2A7E4FF801856
:10077D007590FFC2A7E4FF12091BD2A7E4FF12096F
:10078D001BE59030E7077F0A12091B80E3C2A7A281
:03079D000192AF17
:0107A0002236
:020859008F0D01
:10085B0012076DA2AF9200C2AFC2A5C2A4C2A785F8
:10086B000D90D2A7E4FF12091BC2A7A20092AF7F83
:04087B000A02091B49
:02082E008F0D2C
:1008300012076DA2AF9200C2AFD2A5C2A4C2A78513
:100840000D90E4FF12091BD2A7E4FF12091BC2A7F7
:09085000A20092AF7F0A02091B0D
:1008A50012076DA2AF9202C2AFC2A5D2A4D2A7759C
:1008B50090FFE4FF12091BAF90C2A7C2A4A2029247
:0108C500AF83
:0108C600220F
:1008C70012076DA2AF9203C2AFD2A5D2A4D2A77569
:0E08D70090FF0000AF90C2A7C2A4A20392AF90
:0108E50022F0
:0A0933007F141208597F3202091BDD
:0A093D007F101208597F3202091BD7
:0607A1008B0E8A0F891087
:1007A700EF33333354F82440FF120859E4F511AB03
:1007B7000EAA0FA910851182758300120443FF1238
:0B07C700082E0511E511C3940840E462
:0107D2002204
:1008E60053073F530501ED6003430740EF4480FF84
:0808F6001208597F3202091BB0
:0A0947008B0C1208E6AF0C02082E1C
:10087F008B098A0A890B1208E6AB09AA0AA90B127F
:10088F00042AFF601012082E7401250BF50BE435B6
:06089F000AF50A80E422C4
:10065C008F128D138B141208E6E51454F0700EE50E
:10066C001554F070047F30800C7F208008E514C492
:10067C00540F2430FF12082EE51204FFAD1312089C
:10068C00E6E514540F700EE515540F70047F30809E
:10069C000B7F208007E514540F2430FF12082E2204
:1007D3007F321208FE7F381208597F6412091B7F8B
:1007E3000C1208597F6412091B7F011208597F0AF2
:0D07F3001208FE7F061208597F6402091BE0
:1005F300C2B57FC81208FE7FC81208FE7FC8120862
:10060300FE7FC81208FE7FC81208FEB2B57FC8126B
:1006130008FE7FC81208FE7FC81208FE7FC81208B2
:10062300FE7FC81208FEB2B57FC81208FE1206ACE0
:100633007B69E4FD7F0A120947E53414600C1460FA
:100643000E2402700F12095180EF12058480EA1202
:09065300001E80E512035480E052
:10073500E4F58EF597F5C1F587F593F594F591F503
:1007450092F595F596F5B1F5B2F5A8F5887D01FF19
:100755001208007D017F011208007D03E4FF1204E9
:08076500F97D037F010204F994
:10080000A2AF9200C2AFEF7012C2A8C289C288ED37
:100810007004D2A88013BD0110800EBF010BC2AAC4
:0D082000C28BC28AED7002D2AAA20092AF74
:01082D0022A8
:1004F900A2AF9200C2AFEF703DC28CC2A9C28DED0E
:10050900700FE58954F02408F589E4F58AF58C80A3
:1005190021BD020B5389F0758A58758C9E8013BDD5
:10052900010B5389F0758A78758CEC8005BD03023F
:100539008040C28D8040EF6401703FC28EC2ABC261
:100549008FED700FE589540F2480F589E4F58BF55B
:100559008D8021BD020B53890F758B58758D9E8037
:1005690013BD010B53890F758B78758DEC8005BD13
:0A05790003028002C28FA20092AFBD
:010583002255
:0D090E0046534D204552524F5221212100E9
:1006FA0012042AFFFE900001120443FDEED39D402E
:10070A0009EE9DFE900001EF80179000011204434C
:10071A00FFEEC39F5010EFF4042EFE12042A90003D
:0A072A00011204708002E4FEAF0625
:0107340022A2
:1006AC001207351207D3E4F53FF540F541F542F555
:1006BC003BF53CF53DF53EF521F522F523F524F50A
:1006CC0025F526F527F528F529F52AF52BF52CF532
:1006DC002DF52EF52FF530F531F532F543F544F5C2
:0E06EC0037F538F535F536C2B7C2B4D2AF22B5
:09095100E4F543F544753401227C
:10058400E4F5087D01FF1208007D017F01120800D7
:10059400758980C28CC2A9C28DE4F58CF58AD28C8F
:1005A400C28EC2ABC28FF58DF58BD28EC2B47F14CE
:1005B40012091BD2B47F1412091BC2B430B3FDA2BA
:1005C400B3B350FB7F321208FEC28CC28EAF8CEFE5
:1005D400FEAD8A7C00E42DF524EC3EF523AF8DEFCF
:0E05E400FEAD8BE42DF52CEC3EF52B753402AC
:0105F20022E6
:10001E007D01E4FF1204F9D28CD2A97B007A00791B
:10002E003B1206FA7508008F09AE087C007D0A1295
:10003E000492EF2544F544EE3543F543D3E544945D
:10004E00E8E543940340D4E4F543F5447D03FF1201
:10005E0004F9753700753804E4F521F522E53864A6
:10006E0004453760026150F537F5380536E53670D0
:10007E00020535AE35AF367C277D101204A4EF2471
:10008E0030F509E43EF508AE35AF367C277D10120B
:10009E0004A48C0A8D0B7B737D017F0A1209477BAA
:1000AE00657D017F0B1209477B637D017F0C120971
:1000BE00477B3A7D017F0D120947AB097D017F0E0B
:1000CE00120947AE0AAF0B7C037DE81204A4EF249D
:1000DE0030F509E43EF508AE0AAF0B7C037DE8125D
:1000EE0004A48C0A8D0BAB097D017F0F120947AE5C
:1000FE000AAF0B7C007D641204A4EF2430F509E4F2
:10010E003EF508AE0AAF0B7C007D641204A48C0A87
:10011E008D0BAB097D017F10120947AE0AAF0B7C28
:10012E00007D0A1204A4EF2430F509E43EF508AE72
:10013E000AAF0B7C007D0A1204A4ED2430F50BE40B
:10014E003CF50AAB097D017F11120947AB0B7D010E
:10015E007F12120947E52425E0FFE52333AB07C3E1
:10016E0013FAEB137C037DE8FFAE021204A4AA0679
:10017E00AB077C017D54120492AA06AB07AA23ABEF
:10018E00247C277D10AF03AE021204A4EF2430F5B9
:10019E0009E43EF5087C277D10AF03AE021204A4DD
:1001AE008C0A8D0BAB09E4FDFF120947AE0AAF0BAB
:1001BE007C037DE81204A4EF2430F509E43EF50833
:1001CE00AE0AAF0B7C037DE81204A48C0A8D0BAB38
:1001DE0009E4FD7F01120947AE0AAF0B7C007D6476
:1001EE001204A4EF2430F509E43EF508AE0AAF0B75
:1001FE007C007D641204A48C0A8D0BAB09E4FD7F98
:10020E0002120947AE0AAF0B7C007D0A1204A4EF5E
:10021E002430F509E43EF508AE0AAF0B7C007D0AEA
:10022E001204A4ED2430F50BE43CF50AAB09E4FD11
:10023E007F03120947AB0BE4FD7F041209477B6D68
:10024E00E4FD7F051209477B6DE4FD7F0612094729
:10025E00E52C25E0FBE52B33C313FAEB137C037D72
:10026E00E8FFAE021204A4AA06AB077C017D54126D
:10027E000492AA06AB077C277D101204A4EF24304B
:10028E00F509E43EF508AE02AF037C277D1012049B
:10029E00A48C0A8D0BAB097D01E4FF120947AE0A4F
:1002AE00AF0B7C037DE81204A4EF2430F509E43E85
:1002BE00F508AE0AAF0B7C037DE81204A48C0A8D00
:1002CE000BAB097D017F01120947AE0AAF0B7C0013
:1002DE007D641204A4EF2430F509E43EF508AE0A5D
:1002EE00AF0B7C007D641204A48C0A8D0BAB097DD0
:1002FE00017F02120947AE0AAF0B7C007D0A120481
:10030E00A4EF2430F509E43EF508AE0AAF0B7C00ED
:10031E007D0A1204A4ED2430F50BE43CF50AAB097A
:10032E007D017F03120947AB0B7D017F0412094744
:10033E007B6D7D017F051209477B6D7D017F061266
:05034E000947E4F5344D
:010353002287
:100354007B007A00793B1206FA8F08EF75F00AA445
:10036400AEF02544F544EE3543F543D3E54494E833
:10037400E543940340DAE4F543F5447D03FF1204B6
:10038400F9753700753804E4F5087B20E4FDAF08FF
:100394001209470508E508C3941040EEE4F5087B0C
:1003A400207D01AF081209470508E508C3941040F1
:1003B400EE7BFF7A09790EE4FDFF12087F7B667DF0
:1003C40001E4FF1209477B737D017F011209477B1A
:1003D4006D7D017F021209477B3A7D017F0312097B
:1003E40047E53475F064842430FB7D017F041209F1
:1003F40047E53475F06484E5F075F00A842430FB35
:100404007D017F05120947E53475F00A84E5F0247F
:1004140030FB7D017F061209477B647D017F071253
:05042400094785343496
:0104290022B0
:03000000020927CB
:0C092700787FE4F6D8FD7581440205F3EA
:10042A00BB010689828A83E0225002E722BBFE02D0
:09043A00E32289828A83E4932203
:10044300BB010CE58229F582E5833AF583E022506E
:1004530006E92582F8E622BBFE06E92582F8E222B8
:0D046300E58229F582E5833AF583E49322D2
:10047000F8BB010DE58229F582E5833AF583E8F0C2
:10048000225006E92582C8F622BBFE05E92582C86E
:02049000F22256
:10049200EF8DF0A4A8F0CF8CF0A428CE8DF0A42E7E
:0204A200FE2238
:1004A400BC000BBE0029EF8DF084FFADF022E4CC3C
:1004B400F875F008EF2FFFEE33FEEC33FCEE9DEC05
:1004C400984005FCEE9DFE0FD5F0E9E4CEFD22ED4B
:1004D400F8F5F0EE8420D21CFEADF075F008EF2F95
:1004E400FFED33FD4007985006D5F0F222C398FD86
:0504F4000FD5F0EA2223
:00000001FF
