:0F07F0007DCD7C01ED1D70011C144C70F7DFF105
:0107FF0022D7
:0B08B200E4FEEEC39F50040E0E80F722
:0108BD002218
:03000300020006F2
:03000600053D3283
:0300130002000EDA
:03000E00053F3279
:03000B00020016DA
:0300160005393277
:03001B000208F1E7
:0308F100053B3292
:10070400A2AF9201C2AFC2A5D2A4D2A7E4FF8018BF
:100714007590FFC2A7E4FF1208B2D2A7E4FF120843
:10072400B2E59030E7077F0A1208B280E3C2A7A2BD
:030734000192AF80
:01073700229F
:020800008F0C5B
:10080200120704A2AF9200C2AFC2A5C2A4C2A785BA
:100812000C90D2A7E4FF1208B2C2A7A20092AF7F47
:040822000A0208B20C
:0207C5008F0C97
:1007C700120704A2AF9200C2AFD2A5C2A4C2A785E6
:1007D7000C90E4FF1208B2D2A7E4FF1208B2C2A736
:0907E700A20092AF7F0A0208B2E1
:10084C00120704A2AF9202C2AFC2A5D2A4D2A7755E
:10085C0090FFE4FF1208B2AF90C2A7C2A4A202920A
:01086C00AFDC
:01086D002268
:10086E00120704A2AF9203C2AFD2A5D2A4D2A7752B
:0E087E0090FF0000AF90C2A7C2A4A20392AFE9
:01088C002249
:0A08CA007F141208007F320208B20A
:0A08D4007F101208007F320208B204
:060738008B0D8A0E890FF3
:10073E00EF33333354F82440FF120800E4F510ABC6
:10074E000DAA0EA90F85108275830012038FFF125A
:0B075E0007C50510E510C3940840E437
:01076900226D
:10088D0053073F530501ED6003430740EF4480FFDD
:08089D001208007F320208B2CC
:0A08DE008B0A12088DAF0A0207C54D
:100826008B098A0A890B12088DAB09AA0AA90B1231
:100836000376FF60101207C57401250BF50BE4352E
:060846000AF50A80E4221D
:1005E1008F118D128B1312088DE51354F0700EE5E7
:1005F1001454F070047F30800C7F208008E513C410
:10060100540F2430FF1207C5E51104FFAD12120883
:100611008DE513540F700EE514540F70047F308074
:100621000B7F208007E513540F2430FF1207C522EA
:100798007F321207F07F381208007F641208B27F98
:1007A8000C1208007F641208B27F011208007F0A49
:0D07B8001207F07F061208007F640208B2ED
:10057D00C2B57FC81207F07FC81207F07FC81207F7
:10058D00F07FC81207F07FC81207F0B2B57FC8120E
:10059D0007F07FC81207F07FC81207F07FC8120757
:1005AD00F07FC81207F0B2B51206317B697D0AE4FF
:1005BD00FF1208DEE53414600C14600E2402700F77
:1005CD001208E880EF12026280EA12001E80E51226
:0405DD00044580E071
:10067F00E4F58EF5A2F58FF5C775AAFF75ABEFF50B
:10068F0097F5C1F587F593F594F591F592F595F5F5
:10069F0096F5B1F5B2F5A8F5887D01FF12076A7DD1
:1006AF00017F0112076A7D03E4FF1204E47D037FDB
:0406BF00010204E44C
:10076A00A2AF9200C2AFEF7012C2A8C289D288EDBE
:10077A007004D2A88013BD0110800EBF010BC2AA5B
:0D078A00C28BD28AED7002D2AAA20092AFFB
:01079700223F
:1004E400A2AF9200C2AFEF7044C28CC2A9C28DED1C
:1004F400700FE58954F02408F589E4F58AF58C80B9
:1005040021BD020B5389F0758A58758C9E8013BDEA
:10051400010B5389F0758A78758CEC8005BD030254
:100524008047C28DD2A9A20092AFD28C22EF64017F
:100534007046C28EC2ABC28FED700FE589540F2492
:1005440080F589E4F58BF58D8024BD020B53890F6A
:10055400758B58758D9E8016BD010B53890F758B55
:1005640078758DEC8008BD0305A20092AF22C28F7E
:08057400D2ABA20092AFD28EBF
:01057C00225C
:0D08A50046534D204552524F522121210053
:0606C3007B007A0079398A
:1006C900120376FFFE90000112038FFDEED39D40C9
:1006D90009EE9DFE900001EF801790000112038F33
:1006E900FFEEC39F5010EFF4042EFE120376900024
:0A06F900011203BC8002E4FEAF060C
:0107030022D3
:1006310012067F120798E4F53DF53EF53FF540F5CA
:1006410039F53AF53BF53CF521F522F523F524F58D
:1006510025F526F527F528F529F52AF52BF52CF5AD
:100661002DF52EF52FF530F531F532F541F542F541
:0E06710037F538F535F536C2B7C2B4D2AF2230
:0908E800E4F541F54275340122EA
:100262007D01E4FF12076AE4FD7F0112076A7D0245
:10027200E4FF1204E4E4FD7F011204E4D2B47F64DB
:100282001208B2C2B47B007A00793F1206C98F0805
:10029200E508D394005002613D7D01E4FF12076A34
:1002A2007D017F0112076A7D03E4FF1204E47D03EE
:1002B2007F011204E4E50864017056FFEF25E02493
:1002C2002BF8E6FC08E6FDEF25E0242DF8A604084D
:1002D200A6050FBF03E6AF8DEFFEAD8B7C00E42DCC
:1002E200F52CEC3EF52B752201AF8CEFFEAD8AE4C6
:1002F2002DFFEC3EFEEF25E0FFEE33FE7C037DE8B2
:100302001203F0EF2542F542EE3541F54175340214
:1003120022AF8CEFFEAD8A7C00E42DFFEC3EFEEFB7
:1003220025E0FFEE33FE7C037DE81203F0EF254269
:10033200F542EE3541F541753404221206C38F08A9
:10034200E508D39400500241877D01E4FF12076A59
:100352007D017F0112076A7D03E4FF1204E47D033D
:100362007F011204E474322542F542E43541F5413D
:03037200753406D9
:010375002265
:10001E007D01E4FF1204E41206C38F08EF75F00AA7
:10002E00A4AEF02542F542EE3541F541D3E54294BA
:10003E00E8E541940340E0E4F541F5427D03FF120B
:10004E0004E4753700753804B2B5E4F521F522E500
:10005E0038640445376002415EF537F5380536E5FC
:10006E003670020535AE35FF7C277D101203F0EF9A
:10007E002430F508AE35AF367C277D101203F08D97
:10008E0009AB087D0A7F011208DEE509FB7A007CC8
:10009E00037DE8FF7E001203F0EF2430F5087C03A9
:1000AE007DE8AF037E001203F08D09AB087D0B7F58
:1000BE00011208DEE50975F064842430F508E509BF
:1000CE0075F0648485F009AB087D0C7F011208DEA3
:1000DE00E50975F00A842430F508E50975F00A84FF
:1000EE0085F009AB087D0D7F011208DEAB097D0E90
:1000FE007F011208DEE52425E0FFE52333AB07C3BD
:10010E0013FAEB137C037DE8FFAE021203F07C01C1
:10011E007D541203DEAA06AB077C277D101203F076
:10012E00EF2430F5087C277D10AF03AE021203F0EA
:10013E008D09AB08E4FDFF1208DEAF097E007C03DB
:10014E007DE81203F0EF2430F508AF097E007C0342
:10015E007DE81203F08D09AB087D01E4FF1208DE85
:10016E00E50975F064842430F508E50975F06484BA
:10017E0085F009AB087D02E4FF1208DEE50975F093
:10018E000A842430F508E50975F00A8485F009AB78
:10019E00087D03E4FF1208DEAB097D04E4FF1208BC
:1001AE00DEE52C25E0FBE52B33C313FAEB137C03C2
:1001BE007DE8FFAE021203F07C017D541203DEAA2D
:1001CE0006AB077C277D101203F0EF2430F508AE46
:1001DE0002AF037C277D101203F08D09AB08E4FDFE
:1001EE007F011208DEE509FB7A007C037DE8FF7EC5
:1001FE00001203F0EF2430F5087C037DE8AF037E98
:10020E00001203F08D09AB087D017F011208DEE5B7
:10021E000975F064842430F508E50975F064848569
:10022E00F009AB087D027F011208DEE50975F00AC0
:10023E00842430F508E50975F00A8485F009AB08C9
:10024E007D037F011208DEAB097D047F011208DEFB
:03025E00E4F53490
:01026100227A
:10044500E4F5087B20AD08E4FF1208DE0508E508A1
:10045500C3941040EEE4F5087B20AD087F01120837
:10046500DE0508E508C3941040EE7BFF7A0879A500
:10047500E4FDFF1208267B66E4FD7F011208DE7BA2
:10048500737D017F011208DE7B6D7D027F011208FD
:10049500DE7B3A7D037F011208DEE53475F0648466
:1004A5002430FB7D047F011208DEE53475F0648499
:1004B500E5F075F00A842430FB7D057F011208DE26
:1004C500E53475F00A84E5F02430FB7D067F0112E2
:0E04D50008DE7B647D077F011208DE8534346B
:0104E30022F6
:030000000208BE35
:0C08BE00787FE4F6D8FD75814202057DCC
:10037600BB010689828A83E0225002E722BBFE0285
:09038600E32289828A83E49322B8
:10038F00BB010CE58229F582E5833AF583E0225023
:10039F0006E92582F8E622BBFE06E92582F8E2226D
:0D03AF00E58229F582E5833AF583E4932287
:1003BC00F8BB010DE58229F582E5833AF583E8F077
:1003CC00225006E92582C8F622BBFE05E92582C823
:0203DC00F2220B
:1003DE00EF8DF0A4A8F0CF8CF0A428CE8DF0A42E33
:0203EE00FE22ED
:1003F000BC000BBE0029EF8DF084FFADF022E4CCF1
:10040000F875F008EF2FFFEE33FEEC33FCEE9DECB9
:10041000984005FCEE9DFE0FD5F0E9E4CEFD22EDFF
:10042000F8F5F0EE8420D21CFEADF075F008EF2F49
:10043000FFED33FD4007985006D5F0F222C398FD3A
:050440000FD5F0EA22D7
:00000001FF
