:0F083A007DCD7C01ED1D70011C144C70F7DFF1BA
:01084900228C
:0B085700E4FEEEC39F50040E0E80F77D
:010862002273
:03000300020006F2
:03000600053D3283
:0300130002000EDA
:03000E00053F3279
:03000B00020016DA
:0300160005393277
:03001B0002089642
:03089600053B32ED
:1006A800A2AF9201C2AFC2A5D2A4D2A7E4FF80181C
:1006B8007590FFC2A7E4FF120857D2A7E4FF1208FB
:1006C80057E59030E7077F0A12085780E3C2A7A2D0
:0306D8000192AFDD
:0106DB0022FC
:020794008F0CC8
:100796001206A8A2AF9200C2AFC2A5C2A4C2A78584
:1007A6000C90D2A7E4FF120857C2A7A20092AF7F0F
:0407B6000A020857D4
:020769008F0CF3
:10076B001206A8A2AF9200C2AFD2A5C2A4C2A7859F
:10077B000C90E4FF120857D2A7E4FF120857C2A748
:09078B00A20092AF7F0A02085798
:100800001206A8A2AF9202C2AFC2A5D2A4D2A77507
:1008100090FFE4FF120857AF90C2A7C2A4A20292B1
:01082000AF28
:0108210022B4
:1007E0001206A8A2AF9203C2AFD2A5D2A4D2A77517
:0E07F00090FF0000AF90C2A7C2A4A20392AF78
:0107FE0022D8
:0A086F007F141207947F320208572D
:0A0879007F101207947F3202085727
:0606DC008B0D8A0E890F50
:1006E200EF33333354F82440FF120794E4F510AB90
:1006F2000DAA0EA90F851082758300120395FF12B1
:0B07020007690510E510C3940840E4EF
:01070D0022C9
:1008220053073F530501ED6003430740EF4480FF48
:080832001207947F32020857FF
:0A0883008B0A120822AF0A0207696F
:1007BA008B098A0A890B120822AB09AA0AA90B1209
:1007CA00037CFF60101207697401250BF50BE435F1
:0607DA000AF50A80E4228A
:10053F008F118D128B13120822E51354F0700EE5F4
:10054F001454F070047F30800C7F208008E513C4B2
:10055F00540F2430FF120769E51104FFAD12120882
:10056F0022E513540F700EE514540F70047F308082
:10057F000B7F208007E513540F2430FF12076922E9
:10073C007F3212083A7F381207947F641208577F71
:10074C000C1207947F641208577F011207947F0ADA
:0D075C0012083A7F061207947F64020857C6
:1004D600C2B57FC812083A7FC812083A7FC8120808
:1004E6003A7FC812083A7FC812083AB2B57FC812D6
:1004F600083A7FC812083A7FC812083A7FC812081D
:100506003A7FC812083AB2B57FC812083A12058F68
:100516007B69E4FD7F0A120883E53414600C1460DD
:100526000E2402700F12088D80EF1205DD80EA128C
:09053600001E80E51202A680E01F
:10062800E4F58EF5A2F58FF5C775AAFF75ABEFF562
:1006380097F5C1F587F593F594F591F592F595F54C
:100648009675B104F5B2F5A8F5887D01FF12070E7D
:100658007D017F0112070E7D03E4FF12044B7D0329
:050668007F0102044BBC
:10070E00A2AF9200C2AFEF7012C2A8C289C288ED2A
:10071E007004D2A88013BD0110800EBF010BC2AAB7
:0D072E00C28BC28AED7002D2AAA20092AF67
:01073B00229B
:10044B00A2AF9200C2AFEF703DC28CC2A9C28DEDBC
:10045B00700FE58954F02408F589E4F58AF58C8052
:10046B0021BD020B5389F0758A58758C9E8013BD84
:10047B00010B5389F0758A78758CEC8005BD0302EE
:10048B008040C28D8040EF6401703FC28EC2ABC210
:10049B008FED700FE589540F2480F589E4F58BF50A
:1004AB008D8021BD020B53890F758B58758D9E80E6
:1004BB0013BD010B53890F758B78758DEC8005BDC2
:0A04CB0003028002C28FA20092AF6C
:0104D5002204
:0D084A0046534D204552524F5221212100AE
:10066D0012037CFFFE900001120395FDEED39D4019
:10067D0009EE9DFE900001EF801790000112039589
:10068D00FFEEC39F5010EFF4042EFE12037C90007A
:0A069D00011203C28002E4FEAF0662
:0106A7002230
:10058F0012062812073CE4F53DF53EF53FF540F520
:10059F0039F53AF53BF53CF521F522F523F524F530
:1005AF0025F526F527F528F529F52AF52BF52CF550
:1005BF002DF52EF52FF530F531F532F541F542F5E4
:0E05CF0037F538F535F536C2B7C2B4D2AF22D3
:09088D00E4F541F5427534012245
:1005DD00E4F5087D01FF12070E7D017F0112070E64
:1005ED00E4FD7F0112044BD28ED2B47F5012085716
:1005FD00C2B47F3212083AA2B3B35016AF8DEFFEDC
:10060D00AD8B7C00E42DF52CEC3EF52B753402C240
:0A061D008E22308FE2753406C28E83
:0106270022B0
:10001E007D01E4FF12044BD28CD2A97B007A0079C9
:10002E003912066D8F08EF75F00AA4AEF02542F571
:10003E0042EE3541F541D3E54294E8E54194034063
:10004E00DAE4F541F5427D03FF12044B7537007576
:10005E003804E4F521F522E53864044537600241A1
:10006E00A2F537F5380536E53670020535AE35AFF3
:10007E00367C277D101203F6EF2430F508AE35AF2F
:10008E00367C277D101203F68D097B737D017F0A66
:10009E001208837B657D017F0B1208837B637D01D4
:1000AE007F0C1208837B3A7D017F0D120883AB080B
:1000BE007D017F0E120883E509FB7A007C037DE843
:1000CE00FF7E001203F6EF2430F5087C037DE8AFC7
:1000DE00037E001203F68D09AB087D017F0F120817
:1000EE0083E50975F064842430F508E50975F0643C
:1000FE008485F009AB087D017F10120883E5097530
:10010E00F00A842430F508E50975F00A84E5F02438
:10011E0030F509AB087D017F11120883AB097D0113
:10012E007F12120883E52425E0FFE52333AB07C3D6
:10013E0013FAEB137C037DE8FFAE021203F6AA0658
:10014E00AB077C017D541203E4AA06AB077C277D26
:10015E00101203F6EF2430F5087C277D10AF03AEA6
:10016E00021203F68D09AB08E4FDFF120883AF09F6
:10017E007E007C037DE81203F6EF2430F508AF090C
:10018E007E007C037DE81203F68D09AB08E4FD7F4B
:10019E0001120883E50975F064842430F508E50939
:1001AE0075F0648485F009AB08E4FD7F02120883C4
:1001BE00E50975F00A842430F508E50975F00A841E
:1001CE00E5F02430F509AB08E4FD7F03120883AB9C
:1001DE0009E4FD7F041208837B6DE4FD7F051208A0
:1001EE00837B6DE4FD7F06120883AA2BAB2C7C2744
:1001FE007D10AF03AE021203F6EF2430F508AE0207
:10020E00AF037C277D101203F68D09AB087D01E448
:10021E00FF120883E509FB7A007C037DE8FF7E0070
:10022E001203F6EF2430F5087C037DE8AF037E0061
:10023E001203F68D09AB087D017F01120883E509D3
:10024E0075F064842430F508E50975F0648485F052
:10025E0009AB087D017F02120883E50975F00A8457
:10026E002430F508E50975F00A84E5F02430F50927
:10027E00AB087D017F03120883AB097D017F041259
:10028E0008837B6D7D017F051208837B6D7D017F69
:07029E0006120883E4F534A9
:0102A5002236
:1002A6007B007A00793912066D8F08EF75F00AA483
:1002B600AEF02542F542EE3541F541D3E54294E8EC
:1002C600E541940340DAE4F541F5427D03FF12046B
:1002D6004B753700753804E4F5087B20E4FDAF085C
:1002E6001208830508E508C3941040EEE4F5087B80
:1002F600207D01AF081208830508E508C394104065
:10030600EE7BFF7A08794AE4FDFF1207BA7B667D29
:1003160001E4FF1208837B737D017F011208837B52
:100326006D7D017F021208837B3A7D017F031208EF
:1003360083E53475F064842430FB7D017F04120864
:1003460083E53475F06484E5F075F00A842430FBA7
:100356007D017F05120883E53475F00A84E5F024F3
:1003660030FB7D017F061208837B647D017F0712C7
:0503760008838534340A
:01037B00225F
:0300000002086390
:0C086300787FE4F6D8FD7581420204D6CF
:10037C00BB010689828A83E0225002E722BBFE027F
:09038C00E32289828A83E49322B2
:10039500BB010CE58229F582E5833AF583E022501D
:1003A50006E92582F8E622BBFE06E92582F8E22267
:0D03B500E58229F582E5833AF583E4932281
:1003C200F8BB010DE58229F582E5833AF583E8F071
:1003D200225006E92582C8F622BBFE05E92582C81D
:0203E200F22205
:1003E400EF8DF0A4A8F0CF8CF0A428CE8DF0A42E2D
:0203F400FE22E7
:1003F600BC000BBE0029EF8DF084FFADF022E4CCEB
:10040600F875F008EF2FFFEE33FEEC33FCEE9DECB3
:10041600984005FCEE9DFE0FD5F0E9E4CEFD22EDF9
:10042600F8F5F0EE8420D21CFEADF075F008EF2F43
:10043600FFED33FD4007985006D5F0F222C398FD34
:050446000FD5F0EA22D1
:00000001FF
