:0F0859007DCD7C01ED1D70011C144C70F7DFF19B
:01086800226D
:0B087600E4FEEEC39F50040E0E80F75E
:010881002254
:03000300020006F2
:03000600053D3283
:0300130002000EDA
:03000E00053F3279
:03000B00020016DA
:0300160005393277
:03001B000207FBDE
:0307FB00053B3289
:10069200A2AF9201C2AFC2A3D2A2D2A1E4FF80183C
:1006A2007590FFC2A1E4FF120876D2A1E4FF1208FE
:1006B20076E59030E7077F0A12087680E3C2A1A2AE
:0306C2000192AFF3
:0106C5002212
:0207AF008F0CAD
:1007B100120692A2AF9200C2AFC2A3C2A2C2A18589
:1007C1000C90D2A1E4FF120876C2A1A20092AF7FE1
:0407D1000A0208769A
:020784008F0CD8
:10078600120692A2AF9200C2AFD2A3C2A2C2A185A4
:100796000C90E4FF120876D2A1E4FF120876C2A1FB
:0907A600A20092AF7F0A0208765E
:10080000120692A2AF9202C2AFC2A3D2A2D2A17527
:1008100090FFE4FF120876AF90C2A1C2A2A202929A
:01082000AF28
:0108210022B4
:10082200120692A2AF9203C2AFD2A3D2A2D2A175F4
:0E08320090FF0000AF90C2A1C2A2A20392AF3D
:010840002295
:0A088E007F141207AF7F32020876D4
:0A0898007F101207AF7F32020876CE
:0606C6008B0D8A0E890F66
:1006CC00EF33333354F82440FF1207AFE4F510AB8B
:1006DC000DAA0EA90F85108275830012038DFF12CF
:0B06EC0007840510E510C3940840E4EB
:0106F70022E0
:1008410053073F530501ED6003430740EF4480FF29
:080851001207AF7F32020876A6
:0A08A2008B0A120841AF0A02078416
:1007D5008B098A0A890B120841AB09AA0AA90B12CF
:1007E5000374FF60101207847401250BF50BE435C3
:0607F5000AF50A80E4226F
:10057B008F118D128B13120841E51354F0700EE599
:10058B001454F070047F30800C7F208008E513C476
:10059B00540F2430FF120784E51104FFAD1212082B
:1005AB0041E513540F700EE514540F70047F308027
:1005BB000B7F208007E513540F2430FF1207842292
:100757007F321208597F381207AF7F641208767FFD
:100767000C1207AF7F641208767F011207AF7F0A6A
:0D0777001208597F061207AF7F6402087652
:1006F8007F641208591205CB7B697D0AE4FF120852
:10070800A2E53414600C14600E2402700F1208ACB9
:1007180080EF12026080EA12001E80E51204438016
:01072800E0F0
:10065A00E4F58EF597F5C1F587F593F594F591F5DF
:10066A0092F595F596F5B1F5B2F5A8F5887D01FFF5
:10067A001207297D017F011207297D03E4FF120475
:08068A00E27D037F010204E29E
:10072900A2AF9200C2AFEF7012C2A8C289D288EDFF
:100739007004D2A88013BD0110800EBF010BC2AA9C
:0D074900C28BD28AED7002D2AAA20092AF3C
:010756002280
:1004E200A2AF9200C2AFEF7044C28CC2A9C28DED1E
:1004F200700FE58954F02408F589E4F58AF58C80BB
:1005020021BD020B5389F0758A58758C9E8013BDEC
:10051200010B5389F0758A78758CEC8005BD030256
:100522008047C28DD2A9A20092AFD28C22EF640181
:100532007046C28EC2ABC28FED700FE589540F2494
:1005420080F589E4F58BF58D8024BD020B53890F6C
:10055200758B58758D9E8016BD010B53890F758B57
:1005620078758DEC8008BD0305A20092AF22C28F80
:08057200D2ABA20092AFD28EC1
:01057A00225E
:0D08690046534D204552524F52212121008F
:060619007B007A00793934
:10061F00120374FFFE90000112038DFDEED39D4077
:10062F0009EE9DFE900001EF801790000112038DDF
:10063F00FFEEC39F5010EFF4042EFE1203749000D0
:0A064F00011203BA8002E4FEAF06B8
:01065900227E
:1005CB0012075712065AE4F53DF53EF53FF540F597
:1005DB0039F53AF53BF53CF521F522F523F524F5F4
:1005EB0025F526F527F528F529F52AF52BF52CF514
:1005FB002DF52EF52FF530F531F532F541F542F5A8
:0E060B0037F538F535F536C2B7C2B4D2AF2296
:0908AC00E4F541F5427534012226
:100260007D01E4FF120729E4FD7F011207297D02C9
:10027000E4FF1204E2E4FD7F011204E2D2B47F64E1
:10028000120876C2B47B007A00793F12061F8F08ED
:10029000E508D394005002613B7D01E4FF12072979
:1002A0007D017F011207297D03E4FF1204E27D0333
:1002B0007F011204E2E50864017056FFEF25E02497
:1002C0002BF8E6FC08E6FDEF25E0242DF8A604084F
:1002D000A6050FBF03E6AF8DEFFEAD8B7C00E42DCE
:1002E000F52CEC3EF52B752201AF8CEFFEAD8AE4C8
:1002F0002DFFEC3EFEEF25E0FFEE33FE7C037DE8B4
:100300001203EEEF2542F542EE3541F54175340218
:1003100022AF8CEFFEAD8A7C00E42DFFEC3EFEEFB9
:1003200025E0FFEE33FE7C037DE81203EEEF25426D
:10033000F542EE3541F541753404221206198F0855
:10034000E508D39400500241857D01E4FF1207299E
:100350007D017F011207297D03E4FF1204E27D0382
:100360007F011204E274322542F542E43541F54141
:03037000753406DB
:010373002267
:10001E007D01E4FF1204E21206198F08EF75F00A53
:10002E00A4AEF02542F542EE3541F541D3E54294BA
:10003E00E8E541940340E0E4F541F5427D03FF120B
:10004E0004E2753700753804E4F521F522E53864CD
:10005E000445376002415CF537F5380536E53670F4
:10006E00020535AE35FF7C277D101203EEEF2430EE
:10007E00F508AE35AF367C277D101203EE8D09AB39
:10008E00087D0A7F011208A2E509FB7A007C037D38
:10009E00E8FF7E001203EEEF2430F5087C037DE8C6
:1000AE00AF037E001203EE8D09AB087D0B7F0112AC
:1000BE0008A2E50975F064842430F508E50975F0A9
:1000CE00648485F009AB087D0C7F011208A2E50956
:1000DE0075F00A842430F508E50975F00A8485F078
:1000EE0009AB087D0D7F011208A2AB097D0E7F01C1
:1000FE001208A2E52425E0FFE52333AB07C313FA6C
:10010E00EB137C037DE8FFAE021203EE7C017D54FF
:10011E001203DCAA06AB077C277D101203EEEF2438
:10012E0030F5087C277D10AF03AE021203EE8D0969
:10013E00AB08E4FDFF1208A2AF097E007C037DE848
:10014E001203EEEF2430F508AF097E007C037DE844
:10015E001203EE8D09AB087D01E4FF1208A2E5093A
:10016E0075F064842430F508E50975F0648485F033
:10017E0009AB087D02E4FF1208A2E50975F00A84B6
:10018E002430F508E50975F00A8485F009AB087D81
:10019E0003E4FF1208A2AB097D04E4FF1208A2E5F6
:1001AE002C25E0FBE52B33C313FAEB137C037DE820
:1001BE00FFAE021203EE7C017D541203DCAA06ABE5
:1001CE00077C277D101203EEEF2430F508AE02AF48
:1001DE00037C277D101203EE8D09AB08E4FD7F0131
:1001EE001208A2E509FB7A007C037DE8FF7E00126F
:1001FE0003EEEF2430F5087C037DE8AF037E00129A
:10020E0003EE8D09AB087D017F011208A2E5097589
:10021E00F064842430F508E50975F0648485F009EE
:10022E00AB087D027F011208A2E50975F00A84244D
:10023E0030F508E50975F00A8485F009AB087D03F1
:10024E007F011208A2AB097D047F011208A2E4F51A
:01025E00346B
:01025F00227C
:10044300E4F5087B20AD08E4FF1208A20508E508DF
:10045300C3941040EEE4F5087B20AD087F01120839
:10046300A20508E508C3941040EE7BFF7A0879697A
:10047300E4FDFF1207D57B66E4FD7F011208A27B32
:10048300737D017F011208A27B6D7D027F0112083B
:10049300A27B3A7D037F011208A2E53475F06484E0
:1004A3002430FB7D047F011208A2E53475F06484D7
:1004B300E5F075F00A842430FB7D057F011208A264
:1004C300E53475F00A84E5F02430FB7D067F0112E4
:0E04D30008A27B647D077F011208A2853434E5
:0104E10022F8
:0300000002088271
:0C088200787FE4F6D8FD7581420206F88C
:10037400BB010689828A83E0225002E722BBFE0287
:09038400E32289828A83E49322BA
:10038D00BB010CE58229F582E5833AF583E0225025
:10039D0006E92582F8E622BBFE06E92582F8E2226F
:0D03AD00E58229F582E5833AF583E4932289
:1003BA00F8BB010DE58229F582E5833AF583E8F079
:1003CA00225006E92582C8F622BBFE05E92582C825
:0203DA00F2220D
:1003DC00EF8DF0A4A8F0CF8CF0A428CE8DF0A42E35
:0203EC00FE22EF
:1003EE00BC000BBE0029EF8DF084FFADF022E4CCF3
:1003FE00F875F008EF2FFFEE33FEEC33FCEE9DECBC
:10040E00984005FCEE9DFE0FD5F0E9E4CEFD22ED01
:10041E00F8F5F0EE8420D21CFEADF075F008EF2F4B
:10042E00FFED33FD4007985006D5F0F222C398FD3C
:05043E000FD5F0EA22D9
:00000001FF
