:0F092B007DCD7C01ED1D70011C144C70F7DFF1C8
:01093A00229A
:0B093B00E4FEEEC39F50040E0E80F798
:01094600228E
:03000300020006F2
:03000600053D3283
:0300130002000EDA
:03000E00053F3279
:03000B00020016DA
:0300160005393277
:03001B0002097A5D
:03097A00053B3208
:10078B00A2AF9201C2AFC2A5D2A4D2A7E4FF801838
:10079B007590FFC2A7E4FF12093BD2A7E4FF120931
:1007AB003BE59030E7077F0A12093B80E3C2A7A223
:0307BB000192AFF9
:0107BE002218
:020886008F0CD5
:1008880012078BA2AF9200C2AFC2A5C2A4C2A785AD
:100898000C90D2A7E4FF12093BC2A7A20092AF7F37
:0408A8000A02093BFC
:02085B008F0C00
:10085D0012078BA2AF9200C2AFD2A5C2A4C2A785C8
:10086D000C90E4FF12093BD2A7E4FF12093BC2A78B
:09087D00A20092AF7F0A02093BC0
:1008D20012078BA2AF9202C2AFC2A5D2A4D2A77551
:1008E20090FFE4FF12093BAF90C2A7C2A4A20292FA
:0108F200AF56
:0108F30022E2
:1008F40012078BA2AF9203C2AFD2A5D2A4D2A7751E
:0E09040090FF0000AF90C2A7C2A4A20392AF62
:0109120022C2
:0A0953007F141208867F3202093B70
:0A095D007F101208867F3202093B6A
:0607BF008B0D8A0E890F6C
:1007C500EF33333354F82440FF120886E4F510ABB9
:1007D5000DAA0EA90F8510827583001204B0FF12B1
:0B07E500085B0510E510C3940840E419
:0107F00022E6
:1009130053073F530501ED6003430740EF4480FF56
:080923001208867F3202093B35
:0A0967008B0A120913AF0A02085BA5
:1008AC008B098A0A890B120913AB09AA0AA90B1224
:1008BC000497FF601012085B7401250BF50BE435EF
:0608CC000AF50A80E42297
:100668008F118D128B13120913E51354F0700EE5D8
:100678001454F070047F30800C7F208008E513C488
:10068800540F2430FF12085BE51104FFAD12120964
:1006980013E513540F700EE514540F70047F308067
:1006A8000B7F208007E513540F2430FF12085B22CC
:10082E007F3212092B7F381208867F6412093B7FB4
:10083E000C1208867F6412093B7F011208867F0A1C
:0D084E0012092B7F061208867F6402093B09
:1005FF00C2B57FC812092B7FC812092B7FC81209F9
:10060F002B7FC812092B7FC812092BB2B57FC812D6
:10061F00092B7FC812092B7FC812092B7FC812091B
:10062F002B7FC812092BB2B57FC812092B1206B83F
:10063F007B69E4FD7F0A120967E53414600C1460CE
:10064F000E2402700F12097180EF1202B380EA12AA
:09065F00001E80E51203C780E0D3
:10070600E4F58EF5A2F58FF5C775AAFF75ABEFF583
:1007160097F5C1F587F593F594F591F592F595F56D
:1007260096F5B1F5B2F5A8F5887D01FF1208007DB2
:10073600017F011208007D03E4FF1205667D037F39
:040746000102056641
:10080000A2AF9200C2AFEF7012C2A8C289D288ED27
:100810007004D2A88013BD0110800EBF010BC2AAC4
:0D082000C28BD28AED7002D2AAA20092AF64
:01082D0022A8
:10056600A2AF9200C2AFEF7044C28CC2A9C28DED99
:10057600700FE58954F02408F589E4F58AF58C8036
:1005860021BD020B5389F0758A58758C9E8013BD68
:10059600010B5389F0758A78758CEC8005BD0302D2
:1005A6008047C28DD2A9A20092AFD28C22EF6401FD
:1005B6007046C28EC2ABC28FED700FE589540F2410
:1005C60080F589E4F58BF58D8024BD020B53890FE8
:1005D600758B58758D9E8016BD010B53890F758BD3
:1005E60078758DEC8008BD0305A20092AF22C28FFC
:0805F600D2ABA20092AFD28E3D
:0105FE0022DA
:0D07F10046534D204552524F522121210008
:06074A007B007A00793902
:10075000120497FFFE9000011204B0FDEED39D40FD
:1007600009EE9DFE900001EF80179000011204B089
:10077000FFEEC39F5010EFF4042EFE12049790007A
:0A078000011204DD8002E4FEAF0662
:01078A00224C
:1006B80012070612082EE4F53DF53EF53FF540F524
:1006C80039F53AF53BF53CF521F522F523F524F506
:1006D80025F526F527F528F529F52AF52BF52CF526
:1006E8002DF52EF52FF530F531F532F541F542F5BA
:0E06F80037F538F535F536C2B7C2B4D2AF22A9
:09097100E4F541F5427534012260
:1002B3007D01E4FF120800E4FD7F011208007D02C6
:1002C300E4FF120566E4FD7F01120566D2B47F6484
:1002D30012093BC2B47B007A00793F1207508F08A2
:1002E300E508D394005002618E7D01E4FF120800FB
:1002F3007D017F011208007D03E4FF1205667D0383
:100303007F01120566E50864017056FFEF25E024BE
:100313002BF8E6FC08E6FDEF25E0242DF8A60408FB
:10032300A6050FBF03E6AF8DEFFEAD8B7C00E42D7A
:10033300F52CEC3EF52B752201AF8CEFFEAD8AE474
:100343002DFFEC3EFEEF25E0FFEE33FE7C037DE860
:10035300120511EF2542F542EE3541F541753402A0
:1003630022AF8CEFFEAD8A7C00E42DFFEC3EFEEF66
:1003730025E0FFEE33FE7C037DE8120511EF2542F5
:10038300F542EE3541F5417534042212074A8F08D0
:10039300E508D39400500241D87D01E4FF12080020
:1003A3007D017F011208007D03E4FF1205667D03D2
:1003B3007F0112056674322542F542E43541F54169
:0303C30075340688
:0103C6002214
:10001E007D01E4FF12056612074A8F08EF75F00A9C
:10002E00A4AEF02542F542EE3541F541D3E54294BA
:10003E00E8E541940340E0E4F541F5427D03FF120B
:10004E000566753700753804B2B5E4F521F522E57D
:10005E003864044537600241AFF537F5380536E5AB
:10006E003670020535AE35FF7C277D10120511EF77
:10007E002430F508AE35AF367C277D101205118D74
:10008E00097B737D017F0A1209677B657D017F0BFA
:10009E001209677B637D017F0C1209677B3A7D0134
:1000AE007F0D120967AB087D017F0E120967E50906
:1000BE00FB7A007C037DE8FF7E00120511EF2430F1
:1000CE00F5087C037DE8AF037E001205118D09ABA8
:1000DE00087D017F0F120967E50975F064842430ED
:1000EE00F508E50975F0648485F009AB087D017F9C
:1000FE0010120967E50975F00A842430F508E50940
:10010E0075F00A84E5F02430F509AB087D017F1106
:10011E00120967AB097D017F12120967E52425E0FC
:10012E00FFE52333AB07C313FAEB137C037DE8FF24
:10013E00AE021205117C017D541204FFAA06AB0714
:10014E007C277D10120511EF2430F5087C277D10D9
:10015E00AF03AE021205118D09AB08E4FDFF1209C3
:10016E0067AF097E007C037DE8120511EF2430F5A0
:10017E0008AF097E007C037DE81205118D09AB08DE
:10018E00E4FD7F01120967E50975F064842430F5FA
:10019E0008E50975F0648485F009AB08E4FD7F027B
:1001AE00120967E50975F00A842430F508E509752A
:1001BE00F00A84E5F02430F509AB08E4FD7F031264
:1001CE000967AB09E4FD7F041209677B6DE4FD7FCF
:1001DE00051209677B6DE4FD7F06120967E52C2584
:1001EE00E0FBE52B33C313FAEB137C037DE8FFAE84
:1001FE00021205117C017D541204FFAA06AB077C86
:10020E00277D10120511EF2430F508AE02AF037CE6
:10021E00277D101205118D09AB087D01E4FF12092F
:10022E0067E509FB7A007C037DE8FF7E001205116D
:10023E00EF2430F5087C037DE8AF037E0012051134
:10024E008D09AB087D017F01120967E50975F06420
:10025E00842430F508E50975F0648485F009AB084F
:10026E007D017F02120967E50975F00A842430F5D5
:10027E0008E50975F00A84E5F02430F509AB087D30
:10028E00017F03120967AB097D017F041209677BA9
:10029E006D7D017F051209677B6D7D017F06120959
:0402AE0067E4F534D8
:0102B2002229
:1003C70012074A8F08EF75F00AA4AEF02542F542EE
:1003D700EE3541F541D3E54294E8E541940340E029
:1003E700E4F541F5427D03FF120566753700753860
:1003F70004E4F5087B20E4FDAF081209670508E56A
:1004070008C3941040EEE4F5087B207D01AF081285
:1004170009670508E508C3941040EE7BFF7A077962
:10042700F1E4FDFF1208AC7B667D01E4FF1209676A
:100437007B737D017F011209677B6D7D017F02124E
:1004470009677B3A7D017F03120967E53475F0641C
:10045700842430FB7D017F04120967E53475F0645D
:1004670084E5F075F00A842430FB7D017F051209CD
:1004770067E53475F00A84E5F02430FB7D017F06DB
:0F0487001209677B647D017F0712096785343492
:010496002243
:03000000020947AB
:0C094700787FE4F6D8FD7581420205FFC0
:10049700BB010689828A83E0225002E722BBFE0263
:0904A700E32289828A83E4932296
:1004B000BB010CE58229F582E5833AF583E0225001
:1004C00006E92582F8E622BBFE06E92582F8E2224B
:0D04D000E58229F582E5833AF583E4932265
:1004DD00F8BB010DE58229F582E5833AF583E8F055
:1004ED00225006E92582C8F622BBFE05E92582C801
:0204FD00F222E9
:1004FF00EF8DF0A4A8F0CF8CF0A428CE8DF0A42E11
:02050F00FE22CA
:10051100BC000BBE0029EF8DF084FFADF022E4CCCE
:10052100F875F008EF2FFFEE33FEEC33FCEE9DEC97
:10053100984005FCEE9DFE0FD5F0E9E4CEFD22EDDD
:10054100F8F5F0EE8420D21CFEADF075F008EF2F27
:10055100FFED33FD4007985006D5F0F222C398FD18
:050561000FD5F0EA22B5
:00000001FF
